:100000000C9434000C9446000C9446000C9446006A
:100010000C9446000C9446000C9446000C94460048
:100020000C9446000C9446000C9490000C944600EE
:100030000C9446000C9446000C9446000C94460028
:100040000C9446000C9446000C9446000C94460018
:100050000C9446000C9446000C9446000C94460008
:100060000C9446000C94460011241FBECFEFD8E03C
:10007000DEBFCDBF21E0A0E0B1E001C01D92A53000
:10008000B207E1F70E9448000C94CC000C940000E9
:1000900080E88AB981E085B91092800085E8809374
:1000A0008100EFE6F0E08081806280837894809127
:1000B00000018230E1F72091030130910401809129
:1000C0000101909102012817390758F4809101012C
:1000D000909102012091030130910401821B930B46
:1000E0000CC0809103019091040120910101309195
:1000F0000201821B930B80959095815197428F311D
:100100009E4450F45F9A8FEF93E224EF8150904029
:100110002040E1F700C000005F9810920001C7CFB7
:100120001F920F920FB60F9211248F939F93EF930C
:10013000FF9380910001811111C080918600909100
:1001400087009093040180930301E1E8F0E080814F
:100150008064808381E08093000114C0809100015D
:10016000813081F480918600909187009093020104
:1001700080930101E1E8F0E080818F7B808382E061
:1001800080930001B59AFF91EF919F918F910F900D
:0C0190000FBE0F901F901895F894FFCF41
:00000001FF
