:100000003BC0000049C0000047C0000045C00000E0
:1000100043C0000041C000003FC000003DC00000E0
:100020003BC0000039C0000037C0000023C2000000
:1000300033C0000031C000002FC000002DC0000000
:100040002BC0000029C0000027C0000025C0000010
:1000500023C0000021C000001FC000001DC0000020
:100060001BC0000019C000009200A600E300F600CB
:1000700033014801C001850111241FBECFEFD8E034
:10008000DEBFCDBF21E0A0E0B1E001C01D92A831EC
:10009000B207E1F7E5D13BC2B3CF809100018823DD
:1000A00019F08A3069F032C01092060110920701EF
:1000B00010920801109209018AE08093000126C085
:1000C0008091060190910701A0910801B09109016A
:1000D0000196A11DB11D8093060190930701A09385
:1000E0000801B09309018091060190910701A09148
:1000F0000801B0910901883C9105A105B10530F0D6
:1001000095B180E2892785B910920001E091100134
:100110008E2F90E08830910508F032C1FC01EC5C34
:10012000FF4FEFC180E180930F0110920B011092FD
:100130000C0110920D0110920E0180910A01813480
:1001400008F420C181E0809310011CC180910B0153
:1001500090910C01A0910D01B0910E010196A11D8D
:10016000B11D80930B0190930C01A0930D01B093EE
:100170000E0180910B0190910C01A0910D01B091A5
:100180000E01883C9105A105B105A0F010920B016C
:1001900010920C0110920D0110920E0180910F012E
:1001A0008F5F80930F0180910F018C3118F082E0F6
:1001B0008093100180910A01813408F0E3C087E048
:1001C00080931001DFC08CE180930F0180910A01C0
:1001D000813418F487E08093100180910A01803601
:1001E00008F4D0C083E080931001CCC080910B0153
:1001F00090910C01A0910D01B0910E010196A11DED
:10020000B11D80930B0190930C01A0930D01B0934D
:100210000E0180910B0190910C01A0910D01B09104
:100220000E01883C9105A105B105A0F010920B01CB
:1002300010920C0110920D0110920E018091050197
:100240008F5F80930501809105018C3118F084E067
:100250008093100180910A018F3508F093C082E0ED
:10026000809310018FC08CE1809305015D9A1092FC
:100270000B0110920C0110920D0110920E01809151
:100280000A018F3508F07EC085E0809310017AC0A6
:1002900080910B0190910C01A0910D01B0910E0184
:1002A0000196A11DB11D80930B0190930C01A093A9
:1002B0000D01B0930E0180910B0190910C01A09162
:1002C0000D01B0910E01883C9105A105B105A0F08A
:1002D00010920B0110920C0110920D0110920E0160
:1002E0008091050181508093050180910501813144
:1002F00018F487E08093100180910A01803608F499
:1003000041C083E0809310013DC080910B0190912A
:100310000C01A0910D01B0910E010196A11DB11D1E
:1003200080930B0190930C01A0930D01B0930E01EB
:1003300080910B0190910C01A0910D01B0910E01E3
:10034000883C9105A105B10598F010920B0110921F
:100350000C0110920D0110920E0180910F0181503D
:1003600080930F0180910F01813110F410921001E0
:1003700080910A01823430F081E08093100102C044
:100380001092100180910F018093B30080910501BC
:1003900087BD0895259A8AB1806A8AB9E0EBF0E0BA
:1003A000808183688083E1EBF0E0808187608083D7
:1003B000239A84B5836884BD85B5856085BD569ACA
:1003C000089580911501882319F08A3049F016C0EC
:1003D000189B14C0109212018AE0809315010EC080
:1003E000189907C08091120180930A01109215019B
:1003F00005C0809112018F5F8093120180911401DA
:10040000882319F08A3049F008951C9B14C010927B
:1004100013018AE08093140108951C9907C080910C
:10042000130180931101109214010895809113011A
:100430008F5F80931301089510928000E1E8F0E04F
:1004400080818A608083EFE6F0E080818260808333
:1004500087E290E0909389008093880078940895D3
:1004600099DFEADF809116018130E1F710921601E1
:1004700014DEF8CF1F920F920FB60F9211242F9314
:100480003F934F935F936F937F938F939F93AF931C
:10049000BF93EF93FF935F9A8091010190910201C6
:1004A000A0910301B09104010196A11DB11D80939B
:1004B000010190930201A0930301B0930401809184
:1004C0001701823330F081E08093160110921701FA
:1004D00005C0809117018F5F8093170172DF5F98CD
:1004E000FF91EF91BF91AF919F918F917F916F910C
:1004F0005F914F913F912F910F900FBE0F901F90E2
:100500001895EE0FFF1F0590F491E02D0994F894D3
:02051000FFCF1B
:00000001FF
