S01700004763634170706C69636174696F6E312E737265635B
S11300000C9434000C9446000C9446000C94460066
S11300100C9446000C9446000C9446000C94460044
S11300200C9446000C9446000C9457000C94460023
S11300300C9446000C9446000C9446000C94460024
S11300400C9446000C9446000C9446000C94460014
S11300500C9446000C9446000C9446000C94460004
S11300600C9446000C94460011241FBECFEFD8E038
S1130070DEBFCDBF21E0A0E0B1E001C01D92A730FA
S1130080B207E1F70E9448000C94DA000C940000D7
S113009080E88AB915B81092800085EC80938100BD
S11300A0EFE6F0E08081806280837894FFCF1F9236
S11300B00F920FB60F9211242F933F938F939F9318
S11300C0EF93FF9380910001811111C0809186000C
S11300D0909187009093060180930501E1E8F0E098
S11300E080818F7B808381E08093000157C0809161
S11300F00001813009F052C0809186009091870000
S11301009093020180930101E1E8F0E08081806432
S11301108083209105013091060180910101909125
S113012002012817390778F48091010190910201A6
S11301302091050130910601821B930B90930401D9
S11301408093030118C080910501909106012091CC
S1130150010130910201821B930B9093040180935F
S113016003018091030190910401809590959093EF
S11301700401809303018091030190910401893E5D
S1130180934048F08091030190910401883B9B4087
S113019010F45F9A03C05F9810920001B59AFF9122
S11301A0EF919F918F913F912F910F900FBE0F90E0
S10B01B01F901895F894FFCF8D
S9030000FC
