S01000005350532D4B65726E2E7372656361
S11300003BC0000049C0000047C0000045C00000DC
S113001043C0000041C000003FC000003DC00000DC
S11300203BC0000039C0000037C0000035C00000EC
S113003033C0000031C00000F4C200002DC0000035
S11300402BC0000029C0000027C0000025C000000C
S113005023C0000021C000001FC000001DC000001C
S11300601BC0000019C0000025013C017B01910167
S1130070D001E6016202250211241FBECFEFD8E0B1
S1130080DEBFCDBF21E0A0E0B1E001C01D92A133ED
S1130090B207E1F7BCD281C4B3CF8F929F92AF92E3
S11300A0BF92CF92DF92EF92FF928091000188235A
S11300B019F08A3069F032C01092140110921501BF
S11300C010921601109217018AE08093000126C055
S11300D08091140190911501A0911601B09117011E
S11300E00196A11DB11D8093140190931501A09355
S11300F01601B09317018091140190911501A091FC
S11301001601B0911701883C9105A105B10530F0A5
S113011095B180E2892785B9109200018091180178
S1130120853170F080912801853150F0809118015B
S1130130863930F480912801863910F4229A239A62
S113014080910D01882319F08A3069F042C0109221
S1130150090110920A0110920B0110920C018AE01D
S113016080930D0136C08091090190910A01A091FC
S11301700B01B0910C010196A11DB11D80930901E1
S113018090930A01A0930B01B0930C0180912A0172
S1130190882359F080912901882339F010922A018B
S11301A01092290110920D0114C0809109019091BF
S11301B00A01A0910B01B0910C01843F9140A1056B
S11301C0B10538F082E380931801809328011092DE
S11301D00D016091280180900F0190901001A09072
S11301E01101B0901201C0900101D0900201E09081
S11301F00301F090040170E080E090E0D9D2A50101
S1130200940162D3A701960141D220E030E040E09E
S11302105FE33CD29FD280910E01262F30E090E024
S113022001972817390719F460910E0102C06093F1
S11302300E01E09127018E2F90E08830910508F09F
S113024041C1FC01EC5CFF4FA2C384E4809326010E
S113025080E1809313011092190110921A011092F7
S11302601B0110921C0180911801813408F42CC1E7
S113027081E08093270128C180E18093130180915C
S1130280190190911A01A0911B01B0911C010196D2
S1130290A11DB11D8093190190931A01A0931B0114
S11302A0B0931C018091190190911A01A0911B0136
S11302B0B0911C010A97A105B105A0F01092190193
S11302C010921A0110921B0110921C0180912601B8
S11302D08F5F8093260180912601863718F082E093
S11302E08093270180911801813408F0EDC087E0E4
S11302F080932701E9C080E18093130186E780930E
S1130300260180911801813418F487E08093270135
S113031080911801803608F4D7C083E080932701C8
S1130320D3C086E7809326018091190190911A0128
S1130330A0911B01B0911C010196A11DB11D8093D8
S1130340190190931A01A0931B01B0931C01809191
S1130350190190911A01A0911B01B0911C010A97F7
S1130360A105B105A0F01092190110921A01109282
S11303701B0110921C01809113018F5F8093130164
S113038080911301861718F084E0809327018091EF
S113039018018F3508F098C082E08093270194C03B
S11303A086E780932601609313011092190110923D
S11303B01A0110921B0110921C01809118018F35B3
S11303C008F082C085E0809327017EC086E7809391
S11303D026018091190190911A01A0911B01B091FD
S11303E01C010196A11DB11D8093190190931A015E
S11303F0A0931B01B0931C018091190190911A01E3
S1130400A0911B01B0911C010A97A105B105A0F0B0
S11304101092190110921A0110921B0110921C01E2
S113042080911301815080931301809113018131D4
S113043018F487E08093270180911801803608F42E
S113044043C083E0809327013FC080E18093130180
S11304508091190190911A01A0911B01B0911C0186
S11304600196A11DB11D8093190190931A01A093C7
S11304701B01B0931C018091190190911A01A09164
S11304801B01B0911C010A97A105B10598F01092C7
S1130490190110921A0110921B0110921C018091F3
S11304A0260181508093260180912601853410F421
S11304B01092270180911801823430F081E08093FA
S11304C0270102C01092270110928B00809126010F
S11304D080938A00809113018093B300FF90EF9082
S11304E0DF90CF90BF90AF909F908F900895259A02
S11304F08AB1806A8AB983E2809380008CE0809319
S11305008100229AE0EBF0E0808183688083E1EB54
S1130510F0E08081876080838DEC9CECACE4BEE3EA
S113052080930F0190931001A0931101B0931201D5
S113053060910F017091100180911101909112014D
S113054020E030E04CED52E4BFD19B01AC0160E00F
S113055070E080EE91E499D0609301017093020100
S11305608093030190930401089580912E018823C0
S113057019F08A3049F019C04A9B17C010922B0118
S11305808AE080932E0111C04A990AC080912B0100
S11305908093180181E080932A0110922E0105C0F6
S11305A080912B018F5F80932B0180912D018823F3
S11305B019F08A3051F008955D984C9B18C0109240
S11305C02C018AE080932D0108955D9A4C990AC00C
S11305D080912C018093280181E08093290110925D
S11305E02D01089580912C018F5F80932C01089533
S11305F084B5826484BD85B5826085BDEEE6F0E095
S113060080818260808387E287BD789408956FDF5C
S1130610EFDF80912F018130E1F710922F013DDD52
S1130620F8CF1F920F920FB60F9211242F933F937E
S11306304F935F936F937F938F939F93AF93BF93E6
S1130640EF93FF935F9A80913001823330F081E021
S113065080932F011092300105C0809130018F5F8B
S11306608093300182DF5F98FF91EF91BF91AF914A
S11306709F918F917F916F915F914F913F912F91B6
S11306800F900FBE0F901F9018955058BB27AA27A4
S11306900ED0E0C0D1D030F0D6D020F031F49F3F5E
S11306A011F41EF4C6C00EF4E095E7FBBCC0E92FBC
S11306B0E2D080F3BA17620773078407950718F02E
S11306C071F49EF5FAC00EF4E0950B2EBA2FA02D0E
S11306D00B01B90190010C01CA01A0011124FF27EB
S11306E0591B99F0593F50F4503E68F11A16F040E6
S11306F0A22F232F342F4427585FF3CF46953795E5
S11307002795A795F0405395C9F77EF41F16BA0BA9
S1130710620B730B840BBAF09150A1F0FF0FBB1F57
S1130720661F771F881FC2F70EC0BA0F621F731FA0
S1130730841F48F4879577956795B795F7959E3FFD
S113074008F0B3CF9395880F08F09927EE0F97958B
S11307508795089598D088F09F5790F0B92F9927DE
S1130760B751A0F0D1F0660F771F881F991F1AF0B8
S1130770BA95C9F712C0B13081F09FD0B1E00895A5
S11307809CC0672F782F8827B85F39F0B93FCCF326
S1130790869577956795B395D9F73EF490958095AE
S11307A0709561957F4F8F4F9F4F0895E89409C0CE
S11307B097FB3EF490958095709561957F4F8F4F90
S11307C09F4F9923A9F0F92F96E9BB279395F695A6
S11307D0879577956795B795F111F8CFFAF4BB0F24
S11307E011F460FF1BC06F5F7F4F8F4F9F4F16C088
S11307F0882311F096E911C0772321F09EE8872F12
S1130800762F05C0662371F096E8862F70E060E0CD
S11308102AF09A95660F771F881FDAF7880F969546
S1130820879597F9089597F99F6780E870E060E0ED
S113083008959FEF80EC089500240A941616170675
S113084018060906089500240A94121613061406BD
S113085005060895092E0394000C11F4882352F020
S1130860BB0F40F4BF2B11F460FF04C06F5F7F4FD8
S11308708F4F9F4F089557FD9058440F551F59F0BF
S11308805F3F71F04795880F97FB991F61F09F3F79
S113089079F087950895121613061406551FF2CFA2
S11308A04695F1DF08C0161617061806991FF1CFF2
S11308B086957105610508940895E894BB27662719
S11308C07727CB0197F908950BD0C4CFB5DF28F073
S11308D0BADF18F0952309F0A6CFABCF1124EECFE1
S11308E0CADFA0F3959FD1F3950F50E0551F629F87
S11308F0F001729FBB27F00DB11D639FAA27F00D75
S1130900B11DAA1F649F6627B00DA11D661F829F9B
S11309102227B00DA11D621F739FB00DA11D621F80
S1130920839FA00D611D221F749F3327A00D611D9D
S1130930231F849F600D211D822F762F6A2F11247F
S11309409F5750408AF0E1F088234AF0EE0FFF1FD2
S1130950BB1F661F771F881F91505040A9F79E3F09
S1130960510570F060CFAACF5F3FECF3983EDCF303
S1130970869577956795B795F795E7959F5FC1F746
S1130980FE2B880F911D9695879597F90895EE0F84
S1110990FF1F0590F491E02D0994F894FFCF19
S9030000FC
