:100000000C94B8010C94D5010C94D5010C94D50135
:100010000C94D5010C94E1040C94D5010C94D501F9
:100020000C94D5010C94D5010C9410050C94D501B9
:100030000C94D5010C94D5010C940F050C940F056C
:100040000C940E050C94D5010C94D5010C94D5019B
:100050000C94D5010C942E060C94D5010C94D5016A
:100060000C94D5010C94D501456E646520646572CD
:10007000204661686E656E7374616E676500312E2F
:100080003120286329323030392D32303137206D1C
:1000900061747A6574726F6E6963730000000000AA
:1000A000000000060004080D0000DD0800E111005A
:1000B000E51900E82100EC2A00EF3200F13A00F4E3
:1000C0004200F64A00F85200FA5A00FC6200FD694C
:1000D00000FE7100FE7800FF8000FF8700FF8E00A9
:1000E000FE9500FE9B00FDA200FCA800FAAE00F801
:1000F000B400F6BA00F4C000F1C500EFCA00ECCFBE
:1001000000E8D400E5D900E1DD00DDE100D9E5003B
:10011000D4E800CFEC00CAEF00C5F100C0F400BA8B
:10012000F600B4F800AEFA00A8FC00A2FD009BFEA9
:100130000095FE008EFF0087FF007FFF0078FE0025
:1001400071FE0069FD0062FC005AFA0052F8004A94
:10015000F60042F4003AF10032EF002AEC0021E808
:100160000019E50011E10008DD0000E10800E511DB
:1001700000E81900EC2100EF2A00F13200F43A0007
:10018000F64200F84A00FA5200FC5A00FD6200FEF6
:100190006900FE7100FF7800FF7F00FF8700FE8E80
:1001A00000FE9500FD9B00FCA200FAA800F8AE003E
:1001B000F6B400F4BA00F1C000EFC500ECCA00E8E4
:1001C000CF00E5D400E1D900DDDD00D9E100D4E5C0
:1001D00000CFE800CAEC00C5EF00C0F100BAF4009F
:1001E000B4F600AEF800A8FA00A2FC009BFD009552
:1001F000FE008EFE0087FF0080FF0078FF0071FE8A
:100200000069FE0062FD005AFC0052FA004AF80044
:1002100042F6003AF40032F1002AEF0021EC001916
:10022000E80011E50008E10000DD0000E10800E55C
:100230001100E81900EC2100EF2A00F13200F43A35
:1002400000F64200F84A00FA5200FC5A00FD620033
:10025000FE6900FE7100FF7800FF8000FF8700FE4E
:100260008E00FE9500FD9B00FCA200FAA800F8AEEF
:1002700000F6B400F4BA00F1C000EFC500ECCA000B
:10028000E8CF00E5D400E1D900DDDD00D9E100D4FC
:10029000E500CFE800CAEC00C5EF00C0F100BAF4F9
:1002A00000B4F600AEF800A8FA00A2FC009BFD0026
:1002B00095FE008EFE0087FF0080FF0078FF007132
:1002C000FE0069FE0062FD005AFC0052FA004AF886
:1002D0000042F6003AF40032F1002AEF0021EC006F
:1002E00019E80011E50008E153746F72696E672028
:1002F000454550524F4D20200053746F7265642065
:10030000202020202020202020005646204D6F74E1
:100310006F722044726976650A004672657120200A
:10032000562F487A2020416D702000526561646923
:100330006E6720454550524F4D2020005265616444
:1003400020446F6E65202020202020200050202097
:1003500020492020204420202020445420004672A0
:1003600065712020562F487A2020416D70200000B2
:1003700011241FBECFEFD4E0DEBFCDBF11E0A0E05F
:10038000B1E0ECEBF3E102C005900D92A032B107B1
:10039000D9F721E0A0E2B1E001C01D92AC33B20771
:1003A000E1F70E9433070C94DC090C940000CF9312
:1003B000DF93DC01FB01E9011A821B821C821D8292
:1003C000198218829F838E83798768875B874A8723
:1003D0008FEF9FE7BD010E9409097D876C879F0110
:1003E000442737FD4095542F61E070E08FEF9FE781
:1003F0000E943F092E873F87488B598BDF91CF9111
:100400000895CF92DF92EF92FF920F931F93CF93B5
:10041000DF938B01FA019C01261B370B84859585A0
:100420008217930784F091958195910928173907D0
:100430006CF086819781289FE001299FD00D389F1D
:10044000D00D112405C0CFEFDFE702C0C1E0D0E836
:10045000442737FD4095542F82819381A481B58133
:10046000280F391F4A1F5B1F86859785A089B18990
:1004700082179307A407B50764F482839383A48348
:10048000B583CC24C394D12CEE24EA949FE7F92EB3
:1004900021C0B095A095909581959F4FAF4FBF4FCC
:1004A000281739074A075B075CF482839383A48388
:1004B000B583CC24CA94DC2CE12C80E8F82E0AC049
:1004C0002283338344835583A085B1850E946709C5
:1004D0006B017C0180819181801B910BA285B3858A
:1004E0008A9F90018B9F300D9A9F300D11241183AC
:1004F0000083BE01882777FD8095982F6C0D7D1DA8
:100500008E1D9F1D8901222717FD2095322F600F18
:10051000711F821F931F20E031E040E050E00E94F5
:100520003F09C901DA01813020E892072FEFA207C5
:10053000B20724F481E090E8AFEFBFEFAC01BD015A
:10054000411580E858076105710524F04FEF5FE71A
:1005500060E070E0CA01DF91CF911F910F91FF9091
:10056000EF90DF90CF900895FC01128213821482E5
:100570001582089584B1817F84B98AB187798AB957
:100580000895CF93C82FA82FA295AF70B0E0A45FB5
:10059000BE4F8C910E94CD06CF70EC2FF0E0E45F4F
:1005A000FE4F8081CF910C94CD06CF93C82F892F19
:1005B0000E94C1028C2FCF910C94C10280E20C9456
:1005C000CD06DF92EF92FF920F931F93CF93DF93AD
:1005D0004AE050E060E071E00E947A0980933B01BC
:1005E000E0E0F1E001900020E9F73197E050F140C0
:1005F000DE2E80E0E82E81E0F82EC0E0D0E08F0112
:100600001127015011090CC0C017D10719F48EE24F
:100610000E94CD06F70181917F010E94CD062196AF
:10062000CD1590F3DF91CF911F910F91FF90EF9037
:10063000DF900895FB01DA0190911E01981710F0E8
:10064000108211C090911E01482F50E02FEF30E032
:10065000291B31094217530744F080911E01880F6E
:10066000809580838FEF8C93089590911E01282FA1
:10067000291B208390911E01980F9C93089589B1A6
:1006800080958770089561E080E00E94BC0688EE46
:1006900092E00E94ED06F8940E94BA02F999FECF0A
:1006A00060911E0188E090E00E94A909F999FECFAF
:1006B000682D87E090E00E94A909F999FECF672D87
:1006C00086E090E00E94A909F999FECF60912C0183
:1006D00070912D0184E090E00E94B709F999FECF56
:1006E00060912E0170912F0182E090E00E94B70985
:1006F000F999FECF609130017091310180E090E076
:100700000E94B709F999FECF2CE0922A78948FEFD6
:1007100099E628E1815090402040E1F700C00000B8
:1007200061E080E00E94BC0689EF92E00E94ED0645
:100730008FEF99E628E1815090402040E1F700C01A
:1007400000000C943F03EF92FF920F931F93CF93FF
:10075000DF930E94CA068DE493E00E94ED0610929A
:1007600021010E943F038111FCCF00E098ECF92E9B
:10077000C1E0D0E028E0E22E0E943F03182F833032
:1007800009F4B0C030F4813059F0823009F0ADC0C6
:1007900014C0843009F464C0853009F0A6C0A6C036
:1007A000809121018F5F809321018091210184300C
:1007B00008F49CC01092210199C0809121018130E0
:1007C000C1F030F0823051F1833009F08FC03BC06E
:1007D00080912C0190912D011816190624F0D093C8
:1007E0002D01C0932C0180912C0190912D01019736
:1007F0004AC080912E0190912F011816190624F0FD
:10080000D0932F01C0932E0180912E0190912F0142
:10081000019790932F0180932E0168C08091300141
:10082000909131011816190624F0D0933101C0932C
:100830003001809130019091310101979093310105
:100840008093300153C080911E01815080931E011E
:1008500080911E01883008F049C0E0921E0146C018
:10086000809121018130A1F028F0823001F18330A4
:10087000E9F52CC080912C0190912D0180912C01E3
:1008800090912D01019690932D0180932C012EC003
:1008900080912E0190912F0120912E0130912F01F6
:1008A0002F5F3F4F30932F0120932E011FC0809167
:1008B00030019091310120913001309131012F5F51
:1008C0003F4F309331012093300110C080911E01C1
:1008D0008F5F80931E0180911E01893C38F0F09259
:1008E0001E0104C00E94430301C000E0409130019A
:1008F0005091310160912E0170912F0180912C0156
:1009000090912D0126E231E00E94D7010E943F0321
:100910008823A1F00F5F0A3050F42FEF8DEE92E0A4
:10092000215080409040E1F700C0000007C08FE3F5
:100930009CE90197F1F700C000000BE061E080E066
:100940000E94BC0680912C0190912D010E94D5023D
:1009500080912E0190912F010E94D502809130014B
:10096000909131010E94D5020E94DE0280911E0109
:100970000E94C1020E94DE02E0912101F0E0EC55EC
:10098000FF4F849161E00E94BC068FE19EE40197D5
:10099000F1F700C00000153009F0EECE10922101F1
:1009A0000E94C7068EE593E00E94ED060E943F0379
:1009B0008111FCCFDF91CF911F910F91FF90EF90AC
:1009C00008951F920F920FB60F9211242F933F9309
:1009D0004F935F936F937F938F939F93AF93BF9347
:1009E000EF93FF9389B18095881F8827881F80FB2C
:1009F00091F80E94BA028CE0982AFF91EF91BF9182
:100A0000AF919F918F917F916F915F914F913F91A6
:100A10002F910F900FBE0F901F9018951895189555
:100A20001F920F920FB60F921124CF92DF92EF9286
:100A3000FF922F933F934F935F936F937F938F9387
:100A40009F93AF93BF93EF93FF93CF93DF9300D028
:100A5000CDB7DEB7892D8C70843019F10E94BA02AF
:100A600081EB84BD92EB909380008093B000109254
:100A7000B3001092880017BC8FEF8093B40080936E
:100A80008A0088BD80E286BBB59BFECF892D837F1F
:100A900094E0992E982A84B18E6084B98AB18866D0
:100AA0008AB9282C312C8091380190913901820D1E
:100AB000931D909339018093380180913801909172
:100AC00039018115904C48F080913801909139019D
:100AD000905C9093390180933801209138013091D6
:100AE0003901232F3327F901EE0FFF1FE20FF31F08
:100AF000E855FF4F9F012F5F3F4F4491CF01029672
:100B0000F90191FC04C0E490FC01C49003C0C490BE
:100B1000FC01E4906C9C600111246E9C7001112416
:100B2000649EC0011124AE014F5F5F4FBE016E5F36
:100B30007F4F892F0E941A038A8187BD898188BDD2
:100B4000AE014F5F5F4FBE016E5F7F4F8D2D0E94E4
:100B50001A038A8180938800898180938A00AE017C
:100B60004F5F5F4FBE016E5F7F4F8F2D0E941A0354
:100B70008A818093B30089818093B400809123019E
:100B80008F5F80932301883C08F44FC090FE15C00E
:100B900020913A01C0903A0130E0AFEFB0E00E94FE
:100BA0005B09BB27A92F982F872F46E251E0682DBC
:100BB00070E00E940102882E8C0C682D80E09BE47E
:100BC00070E00E94F5089B0140E050E066ED7CED8E
:100BD00081E090E00E941D093093250120932401BB
:100BE000C9016AE070E00E94F508CB01789EB0016F
:100BF000799E700D112480E090E0611571058105EA
:100C0000910551F0663FF9E07F078105910524F0D9
:100C100066EF79E080E090E02AE030E040E050E0EC
:100C20000E943F09622E109223010F900F90DF91D6
:100C3000CF91FF91EF91BF91AF919F918F917F9154
:100C40006F915F914F913F912F91FF90EF90DF90C7
:100C5000CF900F900FBE0F901F90189578941F9211
:100C60000F920FB60F9211242F938F939F9390FEA4
:100C700022C080917C00843619F08536B1F40DC015
:100C800020913A018091790090E0820F911D959515
:100C9000879580933A0185E609C08091790090E0BC
:100CA000870D911D95958795782E84E680937C001D
:100CB0008EED80937A009F918F912F910F900FBEB0
:100CC0000F901F901895289A00C0289808951F9398
:100CD000CF93DF931F92CDB7DEB7662311F02C9A26
:100CE00001C02C982D9897B19F6097B918B1107FCB
:100CF000982F92959F70912B98B989830E946306D3
:100D000089818F70812B88B90E9463061F6018B992
:100D10000F90DF91CF911F9108952C982D9A87B154
:100D2000807F87B9289A00C086B1289800C0289A89
:100D300000C096B128989F708295807F892B089576
:100D40000E948D0687FDFCCF88E090E00197F1F7C7
:100D50000C948D06CF93C82F0E94A00660E08C2FC4
:100D6000CF910C946706CF93C82F0E94A00661E034
:100D70008C2FCF910C946706611102C0805801C07E
:100D800080540C94AA060E94A00690E0089581E089
:100D90000C94AA0682E00C94AA06CF93C82F0E9456
:100DA000A006CA3049F4803410F480E401C080E029
:100DB0008058CF910C94AA0661E08C2FCF910C94AF
:100DC0006706CF93DF93EC0102C00E94CD068991A4
:100DD0008111FBCFDF91CF910895CF93DF93EC0189
:100DE00002C00E94CD06FE01219684918111F9CFA7
:100DF000DF91CF9108951F93CF93DF93182F97B171
:100E00009F6097B9249A259A209AE0E0FAEF3197EB
:100E1000F1F7419A409A0E946306E0E0FEE43197C0
:100E2000F1F70E946306C0E0D1E0FE013197F1F7CF
:100E30000E946306FE013197F1F740980E94630615
:100E40002197F1F788E20E94AA0688E00E94AA068C
:100E50000E94C70686E00E94AA06812FDF91CF91EB
:100E60001F910C94AA06F894612C10923A018824E0
:100E70008394109221018FE087B985B1817F85B974
:100E80008BB187798BB98AB1887F8AB98BB1876931
:100E90008BB98CE00E94FB060E94CA068AE093E0B0
:100EA0000E94ED0680E30E94CD0621E024BD82E091
:100EB000809380002093B0008FEF90E090938700A4
:100EC0008093860016BC83E090E090938500809329
:100ED000840085E08093B20025BD81E1809381008C
:100EE0002093B10081E30E94CD0680E880936D00DD
:100EF00084E08093680082E30E94CD0686E98093B7
:100F00007A0080E380937E0084E680937C001092D8
:100F10007B0086EC80937A000E94BA022FEF83EC6C
:100F200099E0215080409040E1F700C000008EED34
:100F300080937A0083E30E94CD0626E231E040E10F
:100F400050E068E070E080E690E00E94D70184E322
:100F50000E94CD06E89490F8E89491F82CE0922A4B
:100F600085E30E94CD0689B18095881F8827881F58
:100F700080FB91F84C9903C0689490F802C0E89403
:100F800090F887E286BB80E280936F0086E30E9440
:100F9000CD068FEF99E628E1815090402040E1F79F
:100FA00000C0000061E080E00E94BC068BE293E09C
:100FB0000E94ED0688E090E00E949B0980931E014C
:100FC00080911E01883018F488E080931E0187E02C
:100FD00090E00E949B09882E86E090E00E949B0989
:100FE000782E84E090E00E94A30990932D018093D5
:100FF0002C0182E090E00E94A30990932F0180933E
:101000002E0180E090E00E94A3099093310180932B
:1010100030018FEF99E628E1815090402040E1F7C0
:1010200000C0000061E080E00E94BC068CE393E019
:101030000E94ED068FEF99E628E181509040204014
:10104000E1F700C000000E943F0387E30E94CD0645
:101050000E94C7068EE00E94AA068AE193E00E94E1
:10106000ED0678946BE0D62E0FEF10E00E943F0360
:1010700090FC40C08230B1F020F4813009F03FC0D4
:1010800005C08330C9F18430D1F51FC080912101A2
:101090008F5F8093210180912101823090F1109225
:1010A00021012FC080912101882319F0813049F559
:1010B00006C0811002C0882483948A9422C07110D3
:1010C00002C0772473947A941CC0809121018823F4
:1010D00019F08130B1F407C08FEF881202C05EEFC3
:1010E000852E83940EC09FEF791202C04EEF742EAE
:1010F000739407C0833019F40E94A30302C01092B6
:1011000022010E943F038823C9F0809122018F5F52
:10111000809322018A3050F42FEF8DEE92E021501F
:1011200080409040E1F700C0000008C08FE39CE9D8
:101130000197F1F700C00000D092220161E080E049
:101140000E94BC0680912401909125010E94E10239
:101150000E94DE0261E086E00E94BC06872D90E0DE
:101160000E94E1020E94DE020E94DE0261E08CE049
:101170000E94BC0624E6629EC0011124B8010E94B0
:10118000F508CB014AE050E060E071E00E947A0986
:1011900080933B01E0E0F1E001900020E9F7319716
:1011A000E050F140CE2E30E0E32E31E0F32EE701A7
:1011B00003C089910E94CD068C2F8E198C15C8F31F
:1011C00085E20E94CD060E94DE02E0912101F0E05E
:1011D000EE55FF4F849161E00E94BC068FE19EE4D2
:1011E0000197F1F700C0000041CFAA1BBB1B51E1E2
:1011F00007C0AA1FBB1FA617B70710F0A61BB70B87
:10120000881F991F5A95A9F780959095BC01CD012B
:10121000089597FB072E16F4009407D077FD09D0A8
:101220000E94F50807FC05D03EF4909581959F4FEC
:101230000895709561957F4F0895A1E21A2EAA1B1B
:10124000BB1BFD010DC0AA1FBB1FEE1FFF1FA21776
:10125000B307E407F50720F0A21BB30BE40BF50B73
:10126000661F771F881F991F1A9469F760957095FC
:10127000809590959B01AC01BD01CF010895052E8D
:1012800097FB16F4009407D057FD0DD00E941D095E
:1012900007FC09D07EF490958095709561957F4FFD
:1012A0008F4F9F4F089550954095309521953F4F12
:1012B0004F4F5F4F0895A29FB001B39FC001A39FFE
:1012C00001D0B29F700D811D1124911D0895B7FFAB
:1012D0000C946F090E946F09821B930B08950E9462
:1012E0005B09A59F900DB49F900DA49F800D911D4B
:1012F00011240895FB019F01E8944230C4F0453267
:10130000B4F44A3029F497FB1EF4909581959F4FD1
:10131000642F77270E94F508805D8A330CF0895D81
:101320008193CB010097A1F716F45DE251931082EF
:10133000C9010C94BC09F999FECF92BD81BDF89A00
:10134000992780B50895A8E1B0E042E050E00C9400
:10135000CE09262FF999FECF1FBA92BD81BD20BDBF
:101360000FB6F894FA9AF99A0FBE019608950E9462
:10137000A909272F0C94AA09DC01FC01672F7191A0
:101380007723E1F7329704C07C916D93708362916B
:10139000AE17BF07C8F30895DC01CB01FC01F99932
:1013A000FECF06C0F2BDE1BDF89A319600B40D92B1
:0C13B00041505040B8F70895F894FFCF6A
:1013BC00303030303030303030303030303132331B
:1013CC003435363738394142434445460000140021
:00000001FF
