S01000005350532D4B65726E2E7372656361
S113000033C0000041C000003FC000003DC00000FC
S11300103BC0000039C0000037C0000035C00000FC
S113002033C0000031C000002FC000002DC000000C
S11300302BC0000029C0000052C1000025C00000F0
S113004023C0000021C000001FC000001DC000002C
S11300501BC0000019C0000017C0000015C000003C
S113006013C0000011C0000011241FBECFEFD8E060
S1130070DEBFCDBF21E0A0E0B1E001C01D92A133FD
S1130080B207E1F722D178C2BBCF80910101882366
S113009019F08A3069F032C01092150110921601DD
S11300A010921701109218018AE08093010126C072
S11300B08091150190911601A0911701B09118013A
S11300C00196A11DB11D8093150190931601A09373
S11300D01701B09318018091150190911601A09118
S11300E01701B0911801883C9105A105B10530F0C4
S11300F095B180E2892785B910920101809122018E
S11301008130C9F018F0823051F13CC087EB9BE09C
S1130110909328018093270186E180931401109223
S11301201A0110921B0110921C0110921D0181E012
S11301308093220127C08091270190912801019684
S113014090932801809327018091270190912801A1
S1130150873D9E40B8F082E08093220113C08091D5
S113016027019091280101979093280180932701FA
S113017080912701909128018839984018F481E0F2
S113018080932201809127019091280190938B0004
S113019080938A0086E18093B3000895259A8AB1FA
S11301A0806A8AB983E2809380008AE18093810027
S11301B08FEF9FE79093890080938800229AE0EB69
S11301C0F0E0808183688083E1EBF0E080818760E8
S11301D08083239A8DEC9CECACE4BEE38093100105
S11301E090931101A0931201B09313016091100137
S11301F070911101809112019091130120E030E07F
S11302004CED52E456D19B01AC0160E070E080EE0D
S113021091E499D0609302017093030180930401E7
S113022090930501089580912E01882319F08A3056
S113023049F019C04A9B17C010922B018AE08093A1
S11302402E0111C04A990AC080912B018093190193
S113025081E08093000110922E0105C080912B0152
S11302608F5F80932B0180912D01882319F08A30B0
S113027051F008955D984C9B18C010922C018AE0AF
S113028080932D0108955D9A4C990AC080912C01A8
S113029080932A0181E08093000110922D0108953A
S11302A080912C018F5F80932C01089584B5826422
S11302B084BD85B5826085BDEEE6F0E08081826014
S11302C0808387E287BD7894089568DFEFDF8091AB
S11302D02F018130E1F710922F01D7DEF8CF1F9262
S11302E00F920FB60F9211242F933F934F935F9366
S11302F06F937F938F939F93AF93BF93EF93FF93EA
S11303005F9A80913001823330F081E080932F0135
S11303101092300105C0809130018F5F80933001CD
S113032082DF5F98FF91EF91BF91AF919F918F9181
S11303307F916F915F914F913F912F910F900FBEDD
S11303400F901F9018955058BB27AA270ED077C03E
S113035068D030F06DD020F031F49F3F11F41EF4DA
S11303605DC00EF4E095E7FB53C0E92F79D080F32C
S1130370BA17620773078407950718F071F49EF59E
S113038091C00EF4E0950B2EBA2FA02D0B01B901EC
S113039090010C01CA01A0011124FF27591B99F0F7
S11303A0593F50F4503E68F11A16F040A22F232F03
S11303B0342F4427585FF3CF469537952795A79553
S11303C0F0405395C9F77EF41F16BA0B620B730BFA
S11303D0840BBAF09150A1F0FF0FBB1F661F771F6B
S11303E0881FC2F70EC0BA0F621F731F841F48F420
S11303F0879577956795B795F7959E3F08F0B3CFA6
S11304009395880F08F09927EE0F9795879508958F
S113041097F99F6780E870E060E008959FEF80ECB3
S1130420089500240A941616170618060906089556
S113043000240A9412161306140605060895092EBC
S11304400394000C11F4882352F0BB0F40F4BF2B2B
S113045011F460FF04C06F5F7F4F8F4F9F4F08956B
S113046057FD9058440F551F59F05F3F71F0479561
S1130470880F97FB991F61F09F3F79F08795089546
S1130480121613061406551FF2CF4695F1DF08C065
S1130490161617061806991FF1CF86957105610582
S11304A008940895E894BB2766277727CB0197F92A
S11304B008950BD0C4CFB5DF28F0BADF18F0952328
S11304C009F0A6CFABCF1124EECFCADFA0F3959FDE
S11304D0D1F3950F50E0551F629FF001729FBB2727
S11304E0F00DB11D639FAA27F00DB11DAA1F649FD3
S11304F06627B00DA11D661F829F2227B00DA11D86
S1130500621F739FB00DA11D621F839FA00D611D0B
S1130510221F749F3327A00D611D231F849F600D2C
S1130520211D822F762F6A2F11249F5750408AF065
S1130530E1F088234AF0EE0FFF1FBB1F661F771FF1
S1130540881F91505040A9F79E3F510570F060CF2D
S1130550AACF5F3FECF3983EDCF3869577956795D9
S1130560B795F795E7959F5FC1F7FE2B880F911D0F
S10F05709695879597F90895F894FFCFAD
S9030000FC
