:1000000010C02AC029C028C027C026C005C124C0EE
:1000100023C022C021C020C01FC01EC01DC01CC0E4
:100020001BC011241FBECFE5D2E0DEBFCDBF10E064
:10003000A0E6B0E0EEEDF4E003C0C89531960D9275
:10004000A238B107D1F710E0A2E8B0E001C01D92DC
:10005000A338B107E1F7EDC0D3CF8F929F92AF9253
:10006000BF92CF92DF92EF92FF920F931F93CF93A5
:10007000DF93CDB7DEB760970FB6F894DEBF0FBE43
:10008000CDBFEF8CF8A089A09AA033E2A32EB12CAB
:10009000AC0EBD1EB92DA82DED918A2E9B2EE532FA
:1000A00021F0EE2309F48CC02EC0ED918A2E9B2EF8
:1000B0008E2F99278F369105D9F18037910574F4E9
:1000C00083369105C9F08436910524F48335910572
:1000D00009F119C089369105B1F115C0853791052F
:1000E00091F18637910524F48337910599F00BC07F
:1000F0008837910561F107C0FB2DEA2D82E090E081
:10010000A80EB91EE081BF2DAE2DED93EA2EFB2E79
:100110001C92C0CFFB2DEA2D82E090E0A80EB91E04
:1001200000811181712F602F9F2D8E2DB5D1B2CFFF
:1001300028E0C22ED12C80E3BF2DAE2D8D93EA2E68
:10014000FB2E1C9207C09AE0C92ED12C03C080E17F
:10015000C82ED12CFB2DEA2D82E090E0A80EB91E0E
:100160000190F081E02D0C2F1D2F005F1F4F188A8A
:100170008E2F9F2F7D2D6C2D9CD1282F205D2A3313
:1001800008F0295DB12FA02F2E930A2F1B2F8E2F41
:100190009F2F7D2D6C2D8DD1F72FE62F672B41F7EB
:1001A000712F602F9F2D8E2D77D1F12FE02F019091
:1001B0000020E9F73197E01BF10BEE0EFF1E6ACF2E
:1001C00080E090E060960FB6F894DEBF0FBECDBF22
:1001D000DF91CF911F910F91FF90EF90DF90CF9023
:1001E000BF90AF909F908F900895682F792F409186
:1001F0008200442381F481E08EBD272F332727FD21
:100200003A952BBD6ABD4DBD4CBD99B7906199BF64
:10021000959A8093820008951F920F920FB60F92C5
:1002200011249598109282000F900FBE0F901F908E
:100230001895CFE4D2E0DEBFCDBFF0EEEF2EFEE2A8
:10024000FF2E8CE0FED080E690E0D7D01ABA8FEF78
:1002500081BB12BA9F2D8E2DC8DF789489B3992760
:1002600080329105E9F08132910534F488309105AE
:10027000E1F0409719F126C08034910561F0803893
:10028000910501F584E690E0E80EF91E91E8E91683
:100290009EE3F906B8F0E0E8EE2EEEE3FE2E12C083
:1002A00070EEE72E7EE2F72E0DC08CE99FEFE80E90
:1002B000F91E90E4E9169FE1F90620F460E4E62EC9
:1002C0006FE1F62E80EC90EEE80EF91EFF92EF92B1
:1002D00080E49FE1E80EF91E81E790E09F938F9301
:1002E0000C2F1D2F0F5F1F4F1F930F93B6DE61E082
:1002F00086E048D08BE790E080D061E080E042D09B
:10030000912F802F7AD09F2D8E2D6FDF8DB79EB7C6
:1003100006960FB6F8949EBF0FBE8DBF80E49CE991
:100320000197F1F79BCFAA9A00C0AA980895882355
:1003300011F0A89A01C0A898A99A8FE084BBAA9A44
:1003400000C093B3AA9800C0AA9A00C083B3AA9829
:1003500082958F70982B892F99270895CF93C82F56
:1003600080E0E5DF8823E4F38FEF84BB8C2F807F70
:1003700085BBD9DFC295C07FC5BBD5DF80EF85BB0C
:10038000CF910895982F662319F4892F805802C0C1
:10039000892F8054E3DF089580E0C9DF8823E4F3E8
:1003A0009927089581E0DADF089582E0D7DF089584
:1003B000CF93C82F80E0BBDF8823E4F3CA3041F439
:1003C000803410F480E401C080E08058C7DF13C09F
:1003D0008FEF84BB8C2F807F816085BBA4DF8C2F47
:1003E000992724E0880F991F2A95E1F7816085BB42
:1003F0009ADF80EF85BBCF910895CF93DF93D92FFC
:10040000C82F8991882321F0D3DF89918823E1F7D0
:10041000DF91CF910895CF93DF93D92FC82FF92F74
:10042000E82F2196C895802D882341F0C1DFFD2F4C
:10043000EC2F2196C895802D8823C1F7DF91CF91AD
:100440000895FF920F931F93F82E8FEF84BB80E0E7
:100450009DE70197F1F700E305BB65DF80E197E2D7
:100460000197F1F705BB5FDF10E0812F8A95F1F767
:1004700005BB59DF1A95F1F780E285BB54DF88E2AE
:100480006DDF88E06BDF8EDF86E068DF8F2D66DF53
:100490001F910F91FF900895E62FF72FA82FB92FE6
:1004A0000D900020E9F7119701900D920020E1F7DF
:1004B0000895AA1BBB1B51E107C0AA1FBB1FA617AB
:1004C000B70710F0A61BB70B881F991F5A95A9F7FD
:0E04D00080959095682F792F8A2F9B2F089585
:1004DE002B2B2B20415652204374726C202B2B2B2E
:1004EE000054702075733A202569002020202020AA
:0204FE000000FC
:00000001FF
