:1000000080C19AC199C198C197C19AC695C194C13E
:1000100093C192C1C4C690C18FC18EC1BFC6BEC6B6
:10002000BCC68AC189C188C187C1DEC785C184C1F8
:1000300083C182C1467265712020562F487A2020E4
:10004000416D702000502020204920202044202095
:100050002020445420005265616420446F6E652066
:100060002020202020200052656164696E672045B1
:100070004550524F4D202000467265712020562F6A
:10008000487A2020416D7020005646204D6F746FD5
:10009000722044726976650A0053746F7265642039
:1000A0002020202020202020200053746F72696EB1
:1000B0006720454550524F4D20200000060004089F
:1000C0000D0000DD0800E11100E51900E82100EC59
:1000D0002A00EF3200F13A00F44200F64A00F852EA
:1000E00000FA5A00FC6200FD6900FE7100FE780013
:1000F000FF8000FF8700FF8E00FE9500FE9B00FD45
:10010000A200FCA800FAAE00F8B400F6BA00F4C0F1
:1001100000F1C500EFCA00ECCF00E8D400E5D9003B
:10012000E1DD00DDE100D9E500D4E800CFEC00CA54
:10013000EF00C5F100C0F400BAF600B4F800AEFA62
:1001400000A8FC00A2FD009BFE0095FE008EFF00B3
:1001500087FF007FFF0078FE0071FE0069FD0062EE
:10016000FC005AFA0052F8004AF60042F4003AF154
:100170000032EF002AEC0021E80019E50011E1004F
:1001800008DD0000E10800E51100E81900EC21009D
:10019000EF2A00F13200F43A00F64200F84A00FA81
:1001A0005200FC5A00FD6200FE6900FE7100FF78FB
:1001B00000FF7F00FF8700FE8E00FE9500FD9B0084
:1001C000FCA200FAA800F8AE00F6B400F4BA00F100
:1001D000C000EFC500ECCA00E8CF00E5D400E1D9CB
:1001E00000DDDD00D9E100D4E500CFE800CAEC0075
:1001F000C5EF00C0F100BAF400B4F600AEF800A8F4
:10020000FA00A2FC009BFD0095FE008EFE0087FF19
:100210000080FF0078FF0071FE0069FE0062FD00B3
:100220005AFC0052FA004AF80042F6003AF4003252
:10023000F1002AEF0021EC0019E80011E50008E1C7
:100240000000DD0000E10800E51100E81900EC21E4
:1002500000EF2A00F13200F43A00F64200F84A00BA
:10026000FA5200FC5A00FD6200FE6900FE7100FFB8
:100270007800FF8000FF8700FE8E00FE9500FD9B4A
:1002800000FCA200FAA800F8AE00F6B400F4BA0030
:10029000F1C000EFC500ECCA00E8CF00E5D400E1F2
:1002A000D900DDDD00D9E100D4E500CFE800CAECDB
:1002B00000C5EF00C0F100BAF400B4F600AEF800DB
:1002C000A8FA00A2FC009BFD0095FE008EFE0087B0
:1002D000FF0080FF0078FF0071FE0069FE0062FDF4
:1002E000005AFC0052FA004AF80042F6003AF400C4
:1002F00032F1002AEF0021EC0019E80011E50008B6
:10030000E10011241FBECFEFD4E0DEBFCDBF11E06E
:10031000A0E0B1E0E6E2F2E102C005900D92A03269
:10032000B107D9F721E0A0E2B1E001C01D92AB33E3
:10033000B207E1F769D375C763CECF93DF93DC01D2
:10034000FB01E9011A821B821C821D82198218821C
:100350009F838E83798768875B874A878FEF9FE7C4
:10036000BD0191D67D876C879F01FF0F440B550B14
:1003700061E070E08FEF9FE7BBD62E873F87488B09
:10038000598BDF91CF910895EF92FF920F931F93B6
:10039000CF93DF938B01FA01861B970B248535855C
:1003A0002817390784F03195219531098217930771
:1003B0006CF026813781829FE001839FD00D929F50
:1003C000D00D112405C0CFEFDFE702C0C1E0D0E8B7
:1003D000092E000CAA0BBB0B4281538164817581ED
:1003E0009A01AB01280F391F4A1F5B1F868597852D
:1003F000A089B18982179307A407B5074CF48283BB
:100400009383A483B58361E070E08FEF9FE71CC006
:10041000B095A095909581959F4FAF4FBF4F2817EE
:1004200039074A075B074CF482839383A483B5831F
:100430006FEF7FEF80E090E807C02283338344832F
:100440005583A085B1857CD620813181201B310B5D
:10045000A285B3852A9F70012B9FF00C3A9FF00C68
:100460001124118300838E01DD0F220B330BAB01AE
:10047000BC01400F511F621F731FC701FF0CAA0B65
:10048000BB0B480F591F6A1F7B1FDB01CA01772373
:1004900024F481509F4FAF4FBF4F892F9A2FAB2F1E
:1004A000BB27A7FDBA95813020E892072FEFA2075E
:1004B000B20724F481E090E8AFEFBFEF811520E8A8
:1004C0009207A105B10524F08FEF9FE7A0E0B0E00F
:1004D000DF91CF911F910F91FF90EF900895289A8F
:1004E00000C028980895CF93DF93D82F662311F08A
:1004F0002C9A01C02C982D9887B18F6087B9C8B10C
:10050000C07F8D2F82958F708C2B88B9E8DFDF70CC
:10051000DC2BD8B9E4DFCF60C8B9DF91CF91089563
:10052000882311F02C9A01C02C982D9A87B1807FD6
:1005300087B9289A00C096B1289800C0289A00C0B0
:1005400026B12F70892F8295807F2898822B08955D
:1005500080E0E6DF8823E4F388E090E00197F1F79C
:1005600080E0DEDF0895CF93C82FF2DF60E08C2FAC
:10057000BADFCF910895611103C08058F4DF089568
:100580008054F1DF089581E0EEDF089582E0EBDF33
:100590000895CF93C82FDCDFCA3041F4803410F0C7
:1005A00080E001C080E48058DEDF03C061E08C2F72
:1005B0009ADFCF910895CF93DF93EC012196FC0150
:1005C0008491882331F0E5DFFE0184912196811129
:1005D000FACFDF91CF9108951F93CF93DF93182F18
:1005E00087B18F6087B9249A259A209A80E09AEF84
:1005F0000197F1F7419A409A72DF80E09EE40197FB
:10060000F1F76DDFC0E0D1E0CE010197F1F767DFD0
:10061000CE010197F1F7409862DF2197F1F788E268
:10062000A2DF88E0A0DFAFDF86E09DDF812F9BDFC8
:10063000DF91CF911F91089584B1817F84B98AB1F0
:1006400087798AB9089590911E01981728F0FB01C7
:100650001082FA018083089590911E01E82FF0E046
:100660002FEF30E0291B3109E217F30754F0809196
:100670001E01880F8095FB0180838FEFFA01808334
:10068000089590911E01F82FF91B9F2FFB01908375
:1006900090911E01890FFA0180830895CF93C82F8E
:1006A000E82FE295EF70F0E0E45FFE4F808171DFAC
:1006B000CF70EC2FF0E0E45FFE4F80816ADFCF91D6
:1006C0000895CF93C82F892FE9DF8C2FE7DFCF91D3
:1006D000089580E25EDF0895DF92EF92FF920F931C
:1006E0001F93CF93DF934AE060E071E039D58093A8
:1006F0003A01E0E0F1E001900020E9F73197E050A5
:10070000F140DE2EEE23A9F000E011E0C0E0D0E0E1
:10071000FF277F0181E0E81AF108CE15DF0511F40B
:100720008EE237DFF80181918F0133DF2196CD15FD
:10073000A0F3DF91CF911F910F91FF90EF90DF9089
:10074000089589B180958770089561E080E013DF96
:100750008AEA90E030DFF8946FDFF999FECF60917C
:100760001E0188E090E03CD5F999FECF682D87E026
:1007700090E036D5F999FECF672D86E090E030D530
:10078000F999FECF60912B0170912C0184E090E0EB
:1007900035D5F999FECF60912D0170912E0182E03F
:1007A00090E02CD5F999FECF60912F017091300126
:1007B00080E090E023D5F999FECF292D2C60922E70
:1007C00078948FE996E821E0815090402040E1F74D
:1007D00000C0000061E080E0CEDE89E990E0EBDE61
:1007E0008FE996E821E0815090402040E1F700C079
:1007F0000000A7DF0895CF92DF92EF92FF920F9350
:100800001F93CF93DF93C2DE85E490E0D4DE109295
:10081000220197DF8111FDCF10E0C5E2D1E00F2E5C
:10082000F8ECCF2EF02DEE24E394F12C6894DD2427
:10083000D3F887DF082F833009F485C028F481308E
:1008400051F08230A9F0CAC0843009F44EC085301E
:1008500009F47AC0C3C0809122018F5F8093220186
:1008600080912201843008F46FC0109222016CC084
:1008700080912201813099F028F08230E9F08330B4
:1008800041F162C08E819F811816190614F0FF8213
:10089000EE828E819F8101979F838E8355C08885CC
:1008A00099851816190614F0F986E88688859985C1
:1008B00001979987888748C08A859B8518161906ED
:1008C00014F0FB86EA868A859B8501979B878A8739
:1008D0003BC080911E01815080931E0180911E01BA
:1008E000883090F5D0921E012FC080912201813076
:1008F00071F028F0823099F08330C9F025C08E81E4
:100900009F818E819F8101969F838E831DC08885E4
:1009100099858885998501969987888715C08A85E4
:100920009B858A859B8501969B878A870DC08091D0
:100930001E018F5F80931E0180911E01893C20F073
:10094000C0921E0101C001DF4A855B8568857985FB
:100950008E819F819E01F1DCF4DE882399F01F5F78
:100960001A3048F401C011E087E99AE30197F1F7E2
:1009700000C0000007C083EC99E00197F1F700C0C8
:1009800000001BE061E080E0F6DD8E819F8199DE52
:100990008885998596DE8A859B8593DE9ADE80918F
:1009A0001E017CDE96DEE0912201F0E0E354FF4F71
:1009B000849161E0E0DD81EE94E00197F1F700C001
:1009C0000000053009F035CF10922201DCDD84E310
:1009D00090E0F1DDB6DE8111FDCF0DC04A855B856B
:1009E000688579858E819F819E01A7DCAADE8111B1
:1009F000BACF10E0C7CFDF91CF911F910F91FF9039
:100A0000EF90DF90CF900895F894612C1092390107
:100A100088248394109222018FE087B985B1817F69
:100A200085B98BB187798BB98AB1887F8AB98BB147
:100A300087698BB98CE0D0DDA9DD89E890E0BBDD6A
:100A400080E3A7DD81E084BD92E0909380008093F5
:100A5000B0002FEF30E0309387002093860016BC63
:100A600023E030E0309385002093840095E090935C
:100A7000B20085BD91E1909381008093B10081E344
:100A800088DD80E880936D0084E08093680082E3D5
:100A900080DDCAE7D0E086E9888380E380937E002A
:100AA00084E680937C0010927B0086EC8883C4DD12
:100AB0008FE493EC0197F1F700C000008EED88837E
:100AC00083E367DD25E231E040E150E068E070E07B
:100AD00080E690E032DC84E35CDDE89490F8E89412
:100AE00091F8992D9C60992E85E353DD89B180950D
:100AF000881F8827881F80FB91F84C9903C0689451
:100B000090F802C0E89490F887E286BB80E2809378
:100B10006F0086E33EDD2FE986E891E021508040BA
:100B20009040E1F700C0000061E080E024DD87E64E
:100B300090E041DD88E090E046D380931E018091F3
:100B40001E01883018F488E080931E0187E090E051
:100B50003AD3882E86E090E036D3782E84E090E079
:100B60003AD3C5E2D1E09F838E8382E090E033D315
:100B70009987888780E090E02ED39B878A872FE92A
:100B800086E891E0215080409040E1F700C00000ED
:100B900061E080E0F0DC86E590E00DDD2FE986E89D
:100BA00091E0215080409040E1F700C00000C9DD95
:100BB00087E3EFDCE8DC8EE0D6DC88E790E0FBDC66
:100BC00078940F2EFBE0EF2EF02D0F2EF4E6FF2E83
:100BD000F02DB7DD90FC48C08230A9F018F48130C8
:100BE00031F03FC08330D9F1843001F13AC08091B7
:100BF00022018F5F80932201809122018230D0F107
:100C00001092220137C080912201882319F081308F
:100C100039F030C0811002C0882483948A942AC09D
:100C2000711002C0772473947A9424C080912201B9
:100C3000882319F0813051F01DC02FEF821204C0BB
:100C40000F2EFEEF8F2EF02D839414C08FEF7812AD
:100C500004C00F2EFEEF7F2EF02D73940BC0CBDD62
:100C600009C01092210106C0833011F4C4DD02C016
:100C70001092210166DD8823B1F0809121018F5F00
:100C8000809321018A3038F487E99AE30197F1F7DC
:100C900000C0000008C083EC99E00197F1F700C0A4
:100CA0000000E092210161E080E065DC8091230199
:100CB0009091240111DD0DDD61E086E05CDC872D83
:100CC00090E00ADD06DD05DD61E08CE054DCF69C99
:100CD00090011124A1E8B0E827D24AE060E071E079
:100CE000880F892F881F990B91953AD280933A01EA
:100CF000E0E0F1E001900020E9F73197E050F140A9
:100D0000EE2361F0C0E0D1E0E1500E2F10E00F5F64
:100D10001E4F89913EDCC017D107D9F785E239DC37
:100D2000D8DCE0912201F0E0E554FF4F849161E0CE
:100D300022DC81EE94E00197F1F700C0000049CF7A
:100D40001F920F920FB60F9211242F933F934F9340
:100D50005F936F937F938F939F93AF93BF93EF9323
:100D6000FF9389B18095881F8827881F80FB91F8A1
:100D700063DC892D8C60982EFF91EF91BF91AF912C
:100D80009F918F917F916F915F914F913F912F91A3
:100D90000F900FBE0F901F901895189518951F92E1
:100DA0000F920FB60F921124CF92DF92EF92FF9223
:100DB0000F931F932F933F934F935F936F937F9363
:100DC0008F939F93AF93BF93EF93FF93CF93DF9353
:100DD00000D0CDB7DEB7892D86958695837081309A
:100DE00009F12ADC81EB84BD92EB90938000809323
:100DF000B0001092B3001092880017BC8FEF809360
:100E0000B40080938A0088BD80E286BBB59BFECF8C
:100E1000892D837F8460982E84B18E6084B98AB1D5
:100E200088668AB9282C312C80913701909138013D
:100E3000820D931D90933801809337018091370183
:100E4000909138018115904C48F080913701909134
:100E50003801905C9093380180933701E09137011D
:100E6000F0913801EF2FFF27CF01880F991FE80F6E
:100E7000F91F9F012F533F4FCF018E539F4FF90111
:100E8000449191FC06C0FC01E490F9013296049172
:100E900005C0FC010491F9013296E490649EF001D2
:100EA0001124609E800111246E9C70011124AE01FA
:100EB0004F5F5F4FBE016E5F7F4F8F2FC4DB8A8114
:100EC00087BD898188BDAE014F5F5F4FBE016E5FF8
:100ED0007F4F812FB8DB8A8180938800898180933E
:100EE0008A00AE014F5F5F4FBE016E5F7F4F8F2D57
:100EF000AADB8A818093B30089818093B4008091BA
:100F000020018F5F80932001883C08F452C090FE3E
:100F100014C020913901C0903901E82DF0E030E093
:100F2000AFEFB0E001D1BB27A92F982F872F45E263
:100F300051E0BF0129DA8C0D882E682D70E080E029
:100F40009BE48DD09B0140E050E066ED7CED81E0BC
:100F500090E0ACD03093240120932301ADECBCECA5
:100F6000E3D0969587959695879596958795789EE3
:100F7000B001799E700D112480E090E016161706DE
:100F8000180619065CF4663FF9E07F0781059105B4
:100F900044F066EF79E080E090E003C060E070E04C
:100FA000CB012AE030E040E050E0A2D0622E109267
:100FB00020010F900F90DF91CF91FF91EF91BF91A2
:100FC000AF919F918F917F916F915F914F913F91E1
:100FD0002F911F910F91FF90EF90DF90CF900F9086
:100FE0000FBE0F901F90189578941F920F920FB616
:100FF0000F9211242F938F939F9390FE28C080917E
:101000007C00843619F0853681F01BC020913901AF
:101010008091790090E0820F911D9595879580933E
:10102000390185E680937C000FC08091790090E0C3
:10103000870D911D95958795782E84E680937C0089
:1010400003C084E680937C008EED80937A009F91AC
:101050008F912F910F900FBE0F901F901895AA1B84
:10106000BB1B51E107C0AA1FBB1FA617B70710F093
:10107000A61BB70B881F991F5A95A9F780959095C5
:10108000BC01CD01089597FB072E16F4009406D0FD
:1010900077FD08D0E4DF07FC05D03EF490958195FC
:1010A0009F4F0895709561957F4F0895A1E21A2E84
:1010B000AA1BBB1BFD010DC0AA1FBB1FEE1FFF1FFC
:1010C000A217B307E407F50720F0A21BB30BE40B4C
:1010D000F50B661F771F881F991F1A9469F7609593
:1010E0007095809590959B01AC01BD01CF0108954D
:1010F000052E97FB16F400940FD057FD05D0D6DFD0
:1011000007FC02D046F408C05095409530952195D3
:101110003F4F4F4F5F4F0895909580957095619523
:101120007F4F8F4F9F4F0895A29FB001B39FC00183
:10113000A39F01D0B29F700D811D1124911D0895B0
:10114000B7FF04C003D0821B930B0895EDDFA59F6A
:10115000900DB49F900DA49F800D911D11240895B2
:10116000BB274A3031F4992322F4BDE29095819552
:101170009F4F01C0BB27FB015527AA27880F991F46
:10118000AA1FA41710F0A41B83955051B9F7A05DB6
:10119000AA3308F0A95DA193009779F7B111B19333
:1011A0001192CB0100C0DC01FC01672F7191772304
:1011B000E1F7329704C07C916D9370836291AE1712
:1011C000BF07C8F30895F999FECF92BD81BDF89A83
:1011D000992780B50895A8E1B0E042E050E013C03F
:1011E000262FF999FECF1FBA92BD81BD20BD0FB643
:1011F000F894FA9AF99A0FBE01960895F1DF272F15
:10120000F0CFDC01CB01FC01F999FECF06C0F2BDA5
:10121000E1BDF89A319600B40D9241505040B8F7B4
:061220000895F894FFCFD1
:1012260030303030303030303030303030313233B2
:1012360034353637383941424344454600001400B8
:00000001FF
