:100000000C949B010C94B8010C94B8010C94B801A9
:100010000C94B8010C94DB080C94B8010C94B80152
:100020000C94B8010C94B8010C940B090C94B80111
:100030000C94B8010C94B8010C940A090C940A09A8
:100040000C9409090C94B8010C94B8010C94B801F3
:100050000C94B8010C943A0A0C94B8010C94B801B1
:100060000C94B8010C94B801467265712020562F8B
:10007000487A2020416D7020005020202049202007
:1000800020442020202044542000526561642044F4
:100090006F6E652020202020202000526561646959
:1000A0006E6720454550524F4D20200046726571C5
:1000B0002020562F487A2020416D7020005646207F
:1000C0004D6F746F722044726976650A0053746FC5
:1000D00072656420202020202020202020005374DE
:1000E0006F72696E6720454550524F4D20200000C9
:1000F000060004080D0000DD0800E11100E519000C
:10010000E82100EC2A00EF3200F13A00F44200F658
:100110004A00F85200FA5A00FC6200FD6900FE71C4
:1001200000FE7800FF8000FF8700FF8E00FE950034
:10013000FE9B00FDA200FCA800FAAE00F8B400F699
:10014000BA00F4C000F1C500EFCA00ECCF00E8D45B
:1001500000E5D900E1DD00DDE100D9E500D4E800EB
:10016000CFEC00CAEF00C5F100C0F400BAF600B44D
:10017000F800AEFA00A8FC00A2FD009BFE0095FE70
:10018000008EFF0087FF007FFF0078FE0071FE00F9
:1001900069FD0062FC005AFA0052F8004AF600427B
:1001A000F4003AF10032EF002AEC0021E80019E5F2
:1001B0000011E10008DD0000E10800E51100E81988
:1001C00000EC2100EF2A00F13200F43A00F6420080
:1001D000F84A00FA5200FC5A00FD6200FE6900FE77
:1001E0007100FF7800FF7F00FF8700FE8E00FE9504
:1001F00000FD9B00FCA200FAA800F8AE00F6B400D7
:10020000F4BA00F1C000EFC500ECCA00E8CF00E589
:10021000D400E1D900DDDD00D9E100D4E500CFE86C
:1002200000CAEC00C5EF00C0F100BAF400B4F6005B
:10023000AEF800A8FA00A2FC009BFD0095FE008E1F
:10024000FE0087FF0080FF0078FF0071FE0069FE5E
:100250000062FD005AFC0052FA004AF80042F60023
:100260003AF40032F1002AEF0021EC0019E8001105
:10027000E50008E10000DD0000E10800E51100E80C
:100280001900EC2100EF2A00F13200F43A00F642A6
:1002900000F84A00FA5200FC5A00FD6200FE6900B4
:1002A000FE7100FF7800FF8000FF8700FE8E00FED9
:1002B0009500FD9B00FCA200FAA800F8AE00F6B481
:1002C00000F4BA00F1C000EFC500ECCA00E8CF00AE
:1002D000E5D400E1D900DDDD00D9E100D4E500CFAF
:1002E000E800CAEC00C5EF00C0F100BAF400B4F6B3
:1002F00000AEF800A8FA00A2FC009BFD0095FE00ED
:100300008EFE0087FF0080FF0078FF0071FE00690D
:10031000FE0062FD005AFC0052FA004AF80042F664
:10032000003AF40032F1002AEF0021EC0019E80055
:1003300011E50008E10011241FBECFEFD8E0DEBFB9
:10034000CDBF11E0A0E0B1E0E0EDF6E102C0059024
:100350000D92A032B107D9F721E0A0E2B1E001C0CF
:100360001D92A034B207E1F70E9466050C94660B5B
:100370000C940000CF93DF93DC01FB01E9011A82AA
:100380001B821C821D82198218829F838E8379872B
:1003900068875B874A878FEF9FE7BD010E94890AC4
:1003A0007D876C879F01FF0F440B550B61E070E068
:1003B0008FEF9FE70E94BF0A2E873F87488B598B9C
:1003C000DF91CF910895EF92FF920F931F93CF93F8
:1003D000DF938B01FA01861B970B2485358528173F
:1003E000390784F0319521953109821793076CF014
:1003F00026813781829FE001839FD00D929FD00D8F
:10040000112405C0CFEFDFE702C0C1E0D0E8092E1C
:10041000000CAA0BBB0B42815381648175819A0148
:10042000AB01280F391F4A1F5B1F86859785A0895E
:10043000B18982179307A407B5074CF4828393838D
:10044000A483B58361E070E08FEF9FE71DC0B09596
:10045000A095909581959F4FAF4FBF4F28173907B3
:100460004A075B074CF482839383A483B5836FEFC1
:100470007FEF80E090E808C0228333834483558374
:10048000A085B1850E94ED0A20813181201B310BAE
:10049000A285B3852A9F70012B9FF00C3A9FF00C28
:1004A0001124118300838E01DD0F220B330BAB016E
:1004B000BC01400F511F621F731FC701FF0CAA0B25
:1004C000BB0B480F591F6A1F7B1FDB01CA01772333
:1004D00024F481509F4FAF4FBF4F892F9A2FAB2FDE
:1004E000BB27A7FDBA95813020E892072FEFA2071E
:1004F000B20724F481E090E8AFEFBFEF811520E868
:100500009207A105B10524F08FEF9FE7A0E0B0E0CE
:10051000DF91CF911F910F91FF90EF900895289A4E
:1005200000C028980895CF93DF93D82F662311F049
:100530002C9A01C02C982D9887B18F6087B9C8B1CB
:10054000C07F8D2F82958F708C2B88B90E948F026F
:10055000DF70DC2BD8B90E948F02CF60C8B9DF9161
:10056000CF910895882311F02C9A01C02C982D9AD0
:1005700087B1807F87B9289A00C096B1289800C0BB
:10058000289A00C026B12F70892F8295807F2898E5
:10059000822B089580E00E94B2028823DCF388E079
:1005A00090E00197F1F780E00E94B2020895CF93A6
:1005B000C82F0E94CA0260E08C2F0E949302CF9144
:1005C0000895611104C080580E94D7020895805494
:1005D0000E94D702089581E00E94D702089582E028
:1005E0000E94D7020895CF93C82F0E94CA02CA3032
:1005F00049F4803410F080E001C080E480580E940B
:10060000D70204C061E08C2F0E949302CF9108951D
:10061000CF93DF93EC012196FC018491882339F07C
:100620000E94F302FE01849121968111F9CFDF919E
:10063000CF9108951F93CF93DF93182F87B18F60C9
:1006400087B9249A259A209A80E09AEF0197F1F7CA
:10065000419A409A0E948F0280E09EE40197F1F750
:100660000E948F02C0E0D1E0CE010197F1F70E9415
:100670008F02CE010197F1F740980E948F022197D7
:10068000F1F788E20E94D70288E00E94D7020E9418
:10069000EB0286E00E94D702812F0E94D702DF91F1
:1006A000CF911F91089584B1817F84B98AB18779F0
:1006B0008AB9089590911E01981728F0FB011082C5
:1006C000FA018083089590911E01E82FF0E02FEF4A
:1006D00030E0291B3109E217F30754F080911E0125
:1006E000880F8095FB0180838FEFFA018083089546
:1006F00090911E01F82FF91B9F2FFB019083909181
:100700001E01890FFA0180830895CF93C82FE82F27
:10071000E295EF70F0E0E45FFE4F80810E94F3020B
:10072000CF70EC2FF0E0E45FFE4F80810E94F30277
:10073000CF910895CF93C82F892F0E9485038C2FC6
:100740000E948503CF91089580E20E94F3020895EC
:10075000DF92EF92FF920F931F93CF93DF934AE0C4
:1007600060E071E00E94000B80933F01E0E0F1E067
:1007700001900020E9F73197E050F140DE2EEE23A2
:10078000B9F000E011E0C0E0D0E0FF277F0181E098
:10079000E81AF108CE15DF0519F48EE20E94F30283
:1007A000F80181918F010E94F3022196CD1590F3FB
:1007B000DF91CF911F910F91FF90EF90DF900895FF
:1007C00089B180958770089561E080E00E94E10220
:1007D0008EED90E00E940803F8940E945303F9996B
:1007E000FECF60911E0188E090E00E94430BF999D2
:1007F000FECF682D87E090E00E94430BF999FECF71
:10080000672D86E090E00E94430BF999FECF60913E
:1008100030017091310184E090E00E94510BF99910
:10082000FECF609132017091330182E090E00E942E
:10083000510BF999FECF609134017091350180E040
:1008400090E00E94510BF999FECF292D2C60922E39
:1008500078948FE794E82EE1815090402040E1F7B2
:1008600000C0000061E080E00E94E1028DEC90E0B9
:100870000E9408038FE794E82EE1815090402040C9
:10088000E1F700C000000E94E0030895CF92DF92DC
:10089000EF92FF920F931F93CF93DF930E94EF028B
:1008A00089E790E00E940803109223010E94E00370
:1008B0008111FCCF10E0CAE2D1E00F2EF8ECCF2E70
:1008C000F02DEE24E394F12C6894DD24D3F80E94FB
:1008D000E003082F833009F485C028F4813051F0FB
:1008E0008230A9F0DBC0843009F44EC0853009F4B1
:1008F0007BC0D4C0809123018F5F809323018091BE
:100900002301843008F470C0109223016DC08091DF
:100910002301813099F028F08230E9F0833041F1F1
:1009200063C08E819F811816190614F0FF82EE8233
:100930008E819F8101979F838E8356C0888599857C
:100940001816190614F0F986E886888599850197A6
:100950009987888749C08A859B851816190614F0DF
:10096000FB86EA868A859B8501979B878A873CC0A0
:1009700080911E01815080931E0180911E0188305C
:1009800098F5D0921E0130C080912301813071F022
:1009900028F0823099F08330C9F026C08E819F8183
:1009A0008E819F8101969F838E831EC08885998545
:1009B0008885998501969987888716C08A859B8541
:1009C0008A859B8501969B878A870EC080911E0130
:1009D0008F5F80931E0180911E01893C28F0C09298
:1009E0001E0102C00E94E4034A855B856885798503
:1009F0008E819F819E010E94BA010E94E00388239C
:100A0000B1F01F5F1A3060F401C011E02FE789EAEE
:100A100093E0215080409040E1F700C0000007C003
:100A20008FE493EC0197F1F700C000001BE061E058
:100A300080E00E94E1028E819F810E949A03888556
:100A400099850E949A038A859B850E949A030E9439
:100A5000A40380911E010E9485030E94A403E091DB
:100A60002301F0E0EF50FF4F849161E00E94E1022A
:100A700087EA91E60197F1F700C00000053009F020
:100A800026CF109223010E94EB0288E690E00E949C
:100A900008030E94E0038111FCCF0FC04A855B85EB
:100AA000688579858E819F819E010E94BA010E948E
:100AB000E0038111AACF10E0BACFDF91CF911F914F
:100AC0000F91FF90EF90DF90CF900895F894612CF4
:100AD00010923E0188248394109223018FE087B9FD
:100AE00085B1817F85B98BB187798BB98AB1887FD0
:100AF0008AB98BB187698BB98CE00E941A030E9476
:100B0000EF028DEB90E00E94080380E30E94F30265
:100B100010922601109227011092280110922901AB
:100B20008091260190912701A0912801B09129017F
:100B30008135934CA105B10500F580912601909176
:100B40002701A0912801B09129010196A11DB11D95
:100B50008093260190932701A0932801B093290147
:100B60008091260190912701A0912801B09129013F
:100B70008135934CA105B10500F381E084BD92E07D
:100B8000909380008093B0002FEF30E03093870087
:100B90002093860016BC23E030E03093850020933C
:100BA000840095E09093B20085BD91E1909381001F
:100BB0008093B10081E30E94F3021092260110920B
:100BC000270110922801109229018091260190910D
:100BD0002701A0912801B09129018135934CA105ED
:100BE000B10500F58091260190912701A09128017F
:100BF000B09129010196A11DB11D8093260190930A
:100C00002701A0932801B09329018091260190919A
:100C10002701A0912801B09129018135934CA105AC
:100C2000B10500F380E880936D0084E08093680054
:100C300082E30E94F3021092260110922701109283
:100C40002801109229018091260190912701A091FD
:100C50002801B09129018135934CA105B10500F51A
:100C60008091260190912701A0912801B09129013E
:100C70000196A11DB11D8093260190932701A09399
:100C80002801B09329018091260190912701A0911C
:100C90002801B09129018135934CA105B10500F3DC
:100CA000CAE7D0E086E9888380E380937E0084E60B
:100CB00080937C0010927B0086EC88830E94530313
:100CC0002FEF84E39CE0215080409040E1F700C08A
:100CD00000008EED888383E30E94F30210922601C8
:100CE000109227011092280110922901809126016B
:100CF00090912701A0912801B09129018135934C51
:100D0000A105B10500F58091260190912701A091E0
:100D10002801B09129010196A11DB11D80932601E2
:100D200090932701A0932801B09329018091260177
:100D300090912701A0912801B09129018135934C10
:100D4000A105B10500F32AE231E040E150E068E09E
:100D500070E080E690E00E94BA0184E30E94F30212
:100D60001092260110922701109228011092290159
:100D70008091260190912701A0912801B09129012D
:100D80008135934CA105B10500F580912601909124
:100D90002701A0912801B09129010196A11DB11D43
:100DA0008093260190932701A0932801B0932901F5
:100DB0008091260190912701A0912801B0912901ED
:100DC0008135934CA105B10500F3E89490F8E894BF
:100DD00091F8F92DFC609F2E85E30E94F30210929A
:100DE000260110922701109228011092290180916A
:100DF000260190912701A0912801B0912901813508
:100E0000934CA105B10500F5809126019091270131
:100E1000A0912801B09129010196A11DB11D8093D7
:100E2000260190932701A0932801B0932901809176
:100E3000260190912701A0912801B09129018135C7
:100E4000934CA105B10500F389B18095881F8827CF
:100E5000881F80FB91F84C9903C0689490F802C0F9
:100E6000E89490F887E286BB80E280936F0086E387
:100E70000E94F3021092260110922701109228017D
:100E8000109229018091260190912701A0912801BB
:100E9000B09129018135934CA105B10500F58091F0
:100EA000260190912701A0912801B0912901019676
:100EB000A11DB11D8093260190932701A0932801C5
:100EC000B09329018091260190912701A0912801DA
:100ED000B09129018135934CA105B10500F38FE74D
:100EE00094E8EEE181509040E040E1F700C000005E
:100EF00061E080E00E94E1028BE990E00E9408033B
:100F000088E090E00E94350B80931E0180911E01C5
:100F1000883018F488E080931E0187E090E00E94FA
:100F2000350B882E86E090E00E94350B782E84E009
:100F300090E00E943D0BCAE2D1E09F838E8382E065
:100F400090E00E943D0B9987888780E090E00E94A6
:100F50003D0B9B878A87FFE724E88EE1F150204014
:100F60008040E1F700C0000061E080E00E94E10203
:100F70008AE890E00E9408039FE7E4E8FEE19150D0
:100F8000E040F040E1F700C000000E94E00387E38A
:100F90000E94F3021092260110922701109228015C
:100FA000109229018091260190912701A09128019A
:100FB000B09129018135934CA105B10500F58091CF
:100FC000260190912701A0912801B0912901019655
:100FD000A11DB11D8093260190932701A0932801A4
:100FE000B09329018091260190912701A0912801B9
:100FF000B09129018135934CA105B10500F30E9400
:10100000EB028EE00E94D7028CEA90E00E94080377
:1010100078940E94E00390FC49C08230A9F018F453
:10102000813031F040C08330D9F1843001F13BC0D0
:10103000809123018F5F809323018091230182306F
:10104000E0F11092230139C080912301882319F027
:10105000813039F032C0811002C0882483948A9490
:101060002CC0711002C0772473947A9426C08091AA
:101070002301882319F0813051F01FC0FFEF8F1238
:1010800004C00F2EFEEF8F2EF02D839416C02FEF8D
:10109000721204C00F2EFEEF7F2EF02D73940DC040
:1010A0000E9446040AC01092220107C0833019F43E
:1010B0000E94460402C0109222010E94E00388238D
:1010C000D1F0809122018F5F809322018A3050F409
:1010D0008FE799EAE3E081509040E040E1F700C0FB
:1010E000000009C08FE493EC0197F1F700C0000005
:1010F0008BE08093220161E080E00E94E102809118
:101100002401909125010E94A8030E94A40361E09C
:1011100086E00E94E102872D90E00E94A8030E94D1
:10112000A4030E94A40361E08CE00E94E10294E623
:10113000699E90011124A1E8B0E80E94DE0A4AE00D
:1011400060E071E0880F892F881F990B91950E94AC
:10115000000B80933F01E0E0F1E001900020E9F70F
:101160003197E050F140EE2379F000E011E0E150DA
:10117000CE2FD0E0CF5FDE4FF80181918F010E942A
:10118000F3020C171D07C1F785E20E94F3020E94CB
:10119000A403E0912301F0E0E151FF4F849161E06D
:1011A0000E94E10287EA91E60197F1F700C0000092
:1011B00010922101FFCF1F920F920FB60F921124B0
:1011C0002F933F934F935F936F937F938F939F934F
:1011D000AF93BF93EF93FF9389B18095881F8827C2
:1011E000881F80FB91F80E945303892D8C60982EF4
:1011F000FF91EF91BF91AF919F918F917F916F91EF
:101200005F914F913F912F910F900FBE0F901F90C4
:101210001895189518951F920F920FB60F921124DA
:10122000CF92DF92EF92FF920F931F932F933F93F2
:101230004F935F936F937F938F939F93AF93BF93DE
:10124000EF93FF93CF93DF9300D0CDB7DEB7892D17
:10125000869586958370813011F10E94530381EB4E
:1012600084BD92EB909380008093B0001092B30005
:101270001092880017BC8FEF8093B40080938A008F
:1012800088BD80E286BBB59BFECF892D837F8460BD
:10129000982E84B18E6084B98AB188668AB9282C68
:1012A000312C80913C0190913D01820D931D9093D2
:1012B0003D0180933C0180913C0190913D0181155D
:1012C000904C48F080913C0190913D01905C90934E
:1012D0003D0180933C01E0913C01F0913D01EF2FF5
:1012E000FF27CF01880F991FE80FF91F9F012B508F
:1012F0003F4FCF018A509F4FF901449191FC06C0A6
:10130000FC01E490F9013296049105C0FC010491BE
:10131000F9013296E490649EF0011124609E8001F0
:1013200011246E9C70011124AE014F5F5F4FBE010E
:101330006E5F7F4F8F2F0E945A038A8187BD8981FC
:1013400088BDAE014F5F5F4FBE016E5F7F4F812F43
:101350000E945A038A8180938800898180938A0041
:10136000AE014F5F5F4FBE016E5F7F4F8F2D0E94BA
:101370005A038A818093B30089818093B40080915D
:1013800020018F5F80932001883C08F458C090FEB4
:1013900016C020913E01C0903E01E82DF0E030E003
:1013A000AFEFB0E00E94DE0ABB27A92F982F872F4E
:1013B0004AE251E0BF010E94E3018C0D882E682DA6
:1013C00070E080E09BE40E94750A9B0140E050E0E1
:1013D00066ED7CED81E090E00E949D0A309325014E
:1013E00020932401ADECBCEC0E94DE0A9695879513
:1013F0009695879596958795789EB001799E700D04
:10140000112480E090E016161706180619065CF401
:10141000663FF9E07F078105910544F066EF79E0CA
:1014200080E090E003C060E070E0CB012AE030E0B3
:1014300040E050E00E94BF0A622E109220010F90FF
:101440000F90DF91CF91FF91EF91BF91AF919F915D
:101450008F917F916F915F914F913F912F911F914C
:101460000F91FF90EF90DF90CF900F900FBE0F90F5
:101470001F90189578941F920F920FB60F92112417
:101480002F938F939F9390FE28C080917C00843689
:1014900019F0853681F01BC020913E0180917900C2
:1014A00090E0820F911D9595879580933E0185E68A
:1014B00080937C000FC08091790090E0870D911D92
:1014C00095958795782E84E680937C0003C084E60A
:1014D00080937C008EED80937A009F918F912F9165
:1014E0000F900FBE0F901F901895AA1BBB1B51E1C8
:1014F00007C0AA1FBB1FA617B70710F0A61BB70B84
:10150000881F991F5A95A9F780959095BC01CD0128
:10151000089597FB072E16F4009407D077FD09D0A5
:101520000E94750A07FC05D03EF4909581959F4F67
:101530000895709561957F4F0895A1E21A2EAA1B18
:10154000BB1BFD010DC0AA1FBB1FEE1FFF1FA21773
:10155000B307E407F50720F0A21BB30BE40BF50B70
:10156000661F771F881F991F1A9469F760957095F9
:10157000809590959B01AC01BD01CF010895052E8A
:1015800097FB1EF400940E94D60A57FD07D00E94D4
:101590009D0A07FC03D04EF40C94D60A5095409552
:1015A000309521953F4F4F4F5F4F0895909580950F
:1015B000709561957F4F8F4F9F4F0895A29FB00107
:1015C000B39FC001A39F700D811D1124911DB29F77
:1015D000700D811D1124911D0895B7FF0C94F50A1B
:1015E0000E94F50A821B930B08950E94DE0AA59FB4
:1015F000900DB49F900DA49F800D911D112408950E
:10160000BB274A3031F4992322F4BDE290958195AD
:101610009F4F0C940C0BBB27FB015527AA27880F63
:10162000991FAA1FA41710F0A41B83955051B9F756
:10163000A05DAA3308F0A95DA193009779F7B111D5
:10164000B1931192CB010C94250BDC01FC01672FA7
:1016500071917723E1F7329704C07C916D93708389
:101660006291AE17BF07C8F30895F999FECF92BDF6
:1016700081BDF89A992780B50895A8E1B0E042E0CD
:1016800050E00C94580B262FF999FECF1FBA92BD4B
:1016900081BD20BD0FB6F894FA9AF99A0FBE019653
:1016A00008950E94430B272F0C94440BDC01CB01BF
:1016B000FC01F999FECF06C0F2BDE1BDF89A319662
:1016C00000B40D9241505040B8F70895F894FFCF00
:1016D0003030303030303030303030303031323304
:1016E000343536373839414243444546000014000A
:00000001FF
