S01100005646445F73696E75732E73726563A2
S11300000C949B010C94B8010C94B8010C94B801A5
S11300100C94B8010C9419070C94B8010C94B80111
S11300200C94B8010C94B8010C9449070C94B801D1
S11300300C94B8010C94B8010C9448070C9448072C
S11300400C9447070C94B8010C94B8010C94B801B3
S11300500C94B8010C9478080C94B8010C94B80171
S11300600C94B8010C94B801467265712020562F87
S1130070487A2020416D7020005020202049202003
S113008020442020202044542000526561642044F0
S11300906F6E652020202020202000526561646955
S11300A06E6720454550524F4D20200046726571C1
S11300B02020562F487A2020416D7020005646207B
S11300C053696E75732044726976650A0053746FC0
S11300D072656420202020202020202020005374DA
S11300E06F72696E6720454550524F4D20200000C5
S11300F0060004080D8011EE840FEC880DEA8C0BC9
S1130100E7900AE59408E29807DF9C05DDA004DA8D
S1130110A503D7A802D4AC02D0B001CDB401CAB8AB
S113012000C6BC00C3BF00BFC300BCC600B8CA0140
S1130130B4CD01B0D002ACD402A8D703A5DA04A090
S1130140DD059CDF0798E20894E50A90E70B8CEA4A
S11301500D88EC0F84EE1180F0137BF21577F41800
S113016073F51A6FF71D6BF82067FA2263FB255F9E
S1130170FC285AFD2B57FD2F53FE324FFE354BFF03
S11301803947FF3C43FF4040FF433CFF4739FE4BA8
S113019035FE4F32FD532FFD572BFC5A28FB5F25AC
S11301A0FA6322F86720F76B1DF56F1AF47318F2DF
S11301B07715F07B13EE8011EC840FEA880DE78C41
S11301C00BE5900AE29408DF9807DD9C05DAA004A9
S11301D0D7A503D4A802D0AC02CDB001CAB401C6DD
S11301E0B800C3BC00BFBF00BCC300B8C600B4CADB
S11301F001B0CD01ACD002A8D402A5D703A0DA0483
S11302009CDD0598DF0794E20890E50A8CE70B88EB
S1130210EA0D84EC0F80EE117BF01377F21573F482
S1130220186FF51A6BF71D67F82063FA225FFB2538
S11302305AFC2857FD2B53FD2F4FFE324BFE3547FA
S1130240FF3943FF3C40FF403CFF4339FF4735FE45
S11302504B32FE4F2FFD532BFD5728FC5A25FB5FD5
S113026022FA6320F8671DF76B1AF56F18F47315FB
S1130270F27713F07B11EE800FEC840DEA880BE724
S11302808C0AE59008E29407DF9805DD9C04DAA067
S113029003D7A502D4A802D0AC01CDB001CAB400E2
S11302A0C6B800C3BC00BFBF00BCC300B8C601B41D
S11302B0CA01B0CD02ACD002A8D403A5D704A0DAF9
S11302C0059CDD0798DF0894E20A90E50B8CE70DA6
S11302D088EA0F84EC1180EE137BF01577F2187323
S11302E0F41A6FF51D6BF72067F82263FA255FFB9C
S11302F0285AFC2B57FD2F53FD324FFE354BFE3948
S113030047FF3C43FF4040FF433CFF4739FF4B3529
S1130310FE4F32FE532FFD572BFD5A28FC5F25FB61
S11303206322FA6720F86B1DF76F1AF57318F477D8
S113033015F27B13F00011241FBECFEFD8E0DEBF0F
S1130340CDBF11E0A0E0B1E0E0E4F3E102C005902C
S11303500D92A032B107D9F721E0A0E2B1E001C0CB
S11303601D92AB33B207E1F70E9458050C949E0925
S11303700C940000CF93DF93DC01FB01E9011A82A6
S11303801B821C821D82198218829F838E83798727
S113039068875B874A878FEF9FE7BD010E94C1088A
S11303A07D876C879F01FF0F440B550B61E070E064
S11303B08FEF9FE70E94F7082E873F87488B598B62
S11303C0DF91CF910895EF92FF920F931F93CF93F4
S11303D0DF938B01FA019C01261B370B84859585DD
S11303E08217930784F0919581959109281739070D
S11303F06CF086819781289FE001299FD00D389F5A
S1130400D00D112405C0CFEFDFE702C0C1E0D0E872
S1130410C901330FAA0BBB0B4281538164817581DF
S11304209A01AB01280F391F4A1F5B1F86859785E8
S1130430A089B18982179307A407B5074CF4828376
S11304409383A483B58361E070E08FEF9FE71DC0C1
S1130450B095A095909581959F4FAF4FBF4F2817AA
S113046039074A075B074CF482839383A483B583DB
S11304706FEF7FEF80E090E808C0228333834483EA
S11304805583A085B1850E94250920813181201BD7
S1130490310BA285B3852A9F70012B9FF00C3A9FE4
S11304A0F00C1124118300838E01DD0F220B330B1A
S11304B0AB01BC01400F511F621F731FC701FF0C2A
S11304C0AA0BBB0B8A019B01080F191F2A1F3B1F94
S11304D0C901B80120E031E040E050E00E94F70893
S11304E0213010E831071FEF4107510724F421E0C0
S11304F030E84FEF5FEFDA01C901811520E8920778
S1130500A105B10524F08FEF9FE7A0E0B0E0DF91F3
S1130510CF911F910F91FF90EF900895289A00C0FA
S113052028980895CF93DF93D82F662311F02C9A3F
S113053001C02C982D9887B18F6087B9C8B1C07F4E
S11305408D2F82958F708C2B88B90E948E02DF705C
S1130550DC2BD8B90E948E02CF60C8B9DF91CF914D
S113056008952C982D9A87B1807F87B9289A00C066
S113057096B1289800C0289A00C026B12F70892F00
S11305808295807F2898822B08950E94B10287FD6E
S1130590FCCF88E090E00197F1F70C94B102CF937F
S11305A0C82F0E94C50260E08C2FCF910C94920258
S11305B0611102C0805801C080540C94CF0281E0C4
S11305C00C94CF0282E00C94CF02CF93C82F0E94E8
S11305D0C502CA3049F4803410F080E001C080E4E0
S11305E08058CF910C94CF0261E08C2FCF910C9462
S11305F09202CF93DF93FC018491EF01219688232B
S113060021F00E94E502FE01F7CFDF91CF9108951A
S11306101F93CF93DF93182F87B18F6087B9249AE4
S1130620259A209A80E09AEF0197F1F7419A409A2F
S11306300E948E0280E09EE40197F1F70E948E02F0
S1130640C0E0D1E0CE010197F1F70E948E02CE0105
S11306500197F1F740980E948E022197F1F788E202
S11306600E94CF0288E00E94CF020E94DF0286E04F
S11306700E94CF02812FDF91CF911F910C94CF0262
S113068084B1817F84B98AB187798AB90895CF9377
S1130690C82FE82FE295EF70F0E0E45FFE4F808111
S11306A00E94E502CF70EC2FF0E0E45FFE4F808102
S11306B0CF910C94E502CF93C82F892F0E94470352
S11306C08C2FCF910C94470380E20C94E502DF92C7
S11306D0EF92FF920F931F93CF93DF934AE060E072
S11306E071E00E94380980933A01E0E0F1E0019062
S11306F00020E9F73197E050F140DE2E00E011E0F0
S1130700C0E0D0E0FF277F0181E0E81AF108CD15B1
S113071068F4CE15DF0519F48EE20E94E502F801B3
S113072081918F010E94E5022196F1CFDF91CF9153
S11307301F910F91FF90EF90DF900895DB01FA0174
S113074090911E01981710F01C921AC090911E01EE
S1130750482F50E02FEF30E0291B3109421753078F
S11307603CF080911E01880F80958C938FEF08C018
S113077090911E01282F291B2C9390911E01890F03
S11307808083089589B180958770089561E080E041
S11307900E94D8028EED90E00E94F902F8940E9423
S11307A04003F999FECF60911E0188E090E00E9419
S11307B07B09F999FECF682D87E090E00E947B09C0
S11307C0F999FECF672D86E090E00E947B09F999A4
S11307D0FECF60912B0170912C0184E090E00E9487
S11307E08909F999FECF60912D0170912E0182E063
S11307F090E00E948909F999FECF60912F017091D0
S1130800300180E090E00E948909F999FECF292DFA
S11308102C60922E78948FE794E82EE181509040DA
S11308202040E1F700C0000061E080E00E94D802AF
S11308308DEC90E00E94F9028FE794E82EE181505C
S113084090402040E1F700C000000C94C203EF92F6
S1130850FF920F931F93CF93DF930E94E20289E7E5
S113086090E00E94F902109222010E94C2038111B9
S1130870FCCFD0E088ECF82E01E010E098E0E92EFF
S11308800E94C203C82F833009F4A5C028F4813024
S113089059F08230B1F006C0843009F45CC0853070
S11308A009F49BC0D0E099C0809122018F5F8093AE
S11308B0220180912201843008F48FC01092220119
S11308C08CC0809122018130B9F028F0823029F166
S11308D08330A1F182C080912B0190912C011816D4
S11308E0190624F010932C0100932B0180912B0105
S11308F090912C01019742C080912D0190912E017D
S11309001816190624F010932E0100932D018091DE
S11309102D0190912E0101973FC080912F0190915C
S113092030011816190624F01093300100932F019A
S113093080912F019091300101973CC080911E015C
S1130940815080931E0180911E01883008F045C0BB
S1130950E0921E0142C0809122018130A1F028F072
S11309608230F9F0833059F138C080912B01909195
S11309702C0180912B0190912C01019690932C01D4
S113098080932B012AC080912D0190912E0180919A
S11309902D0190912E01019690932E0180932D01AB
S11309A01CC080912F019091300180912F01909172
S11309B0300101969093300180932F010EC08091F5
S11309C01E018F5F80931E0180911E01893C28F0D7
S11309D0F0921E0102C00E94C60340912F01509163
S11309E0300160912D0170912E0180912B01909125
S11309F02C0125E231E00E94BA010E94C20388233F
S1130A00A1F0DF5FDA3050F42FE789EA93E0215058
S1130A1080409040E1F700C0000007C08FE493ECF1
S1130A200197F1F700C00000DBE061E080E00E9484
S1130A30D80280912B0190912C010E945B0380913C
S1130A402D0190912E010E945B0380912F019091C2
S1130A5030010E945B030E94640380911E010E9486
S1130A6047030E946403E0912201F0E0EF50FF4F3E
S1130A70849161E00E94D80287EA91E60197F1F738
S1130A8000C00000C53009F0FBCE109222010E9484
S1130A90DF0288E690E00E94F9020E94C2038111FD
S1130AA0FCCFDF91CF911F910F91FF90EF900895AC
S1130AB0F894612C109239018824839410922201B5
S1130AC08FE087B985B1817F85B98BB187798BB97F
S1130AD08AB1887F8AB98BB187698BB98CE00E940F
S1130AE008030E94E2028DEB90E00E94F90280E389
S1130AF00E94E50281E084BD92E09093800080939F
S1130B00B0002FEF30E0309387002093860016BCAE
S1130B1023E030E0309385002093840095E09093A7
S1130B20B20085BD91E1909381008093B10081E38F
S1130B300E94E50280E880936D0084E08093680061
S1130B4082E30E94E50286E980937A0080E3809341
S1130B507E0084E680937C0010927B0086EC809378
S1130B607A000E9440032FEF84E39CE021508040F0
S1130B709040E1F700C000008EED80937A0083E39B
S1130B800E94E50225E231E040E150E068E070E0D7
S1130B9080E690E00E94BA0184E30E94E502E894B2
S1130BA090F8E89491F8E92DEC609E2E85E30E947C
S1130BB0E50289B18095881F8827881F80FB91F8FA
S1130BC04C9903C0689490F802C0E89490F887E2C6
S1130BD086BB80E280936F0086E30E94E502FFE714
S1130BE024E88EE1F15020408040E1F700C000008D
S1130BF061E080E00E94D8028BE990E00E94F90253
S1130C0088E090E00E946D0980931E0180911E018E
S1130C10883018F488E080931E0187E090E00E94F9
S1130C206D09882E86E090E00E946D09782E84E09C
S1130C3090E00E94750990932C0180932B0182E02F
S1130C4090E00E94750990932E0180932D0180E01D
S1130C5090E00E9475099093300180932F019FE7E3
S1130C60E4E8FEE19150E040F040E1F700C000000C
S1130C7061E080E00E94D8028AE890E00E94F902D4
S1130C802FE784E89EE1215080409040E1F700C0C6
S1130C9000000E94C20387E30E94E5020E94DF0273
S1130CA08EE00E94CF028CEA90E00E94F9027894D0
S1130CB00BE0CFEFD0E00E94C20390FC3FC0823033
S1130CC0A9F018F4813031F03EC08330C9F184308A
S1130CD001F139C0809122018F5F809322018091BC
S1130CE02201823090F1109222012FC080912201C2
S1130CF0882319F0813039F028C0811002C088247B
S1130D0083948A9422C0711002C0772473947A94D5
S1130D101CC080912201882319F0813041F015C054
S1130D20EFEF8E1202C02EEF822E83940EC0FFEFDF
S1130D307F1202C09EEF792E739407C0833019F49A
S1130D400E94270402C0109221010E94C20388233A
S1130D50C9F0809121018F5F809321018A3050F482
S1130D602FE789EA93E0215080409040E1F700C0EA
S1130D70000008C0EFE4F3EC3197F1F700C0000085
S1130D800093210161E080E00E94D8028091230158
S1130D90909124010E9467030E94640361E086E04D
S1130DA00E94D802872D90E00E9467030E9464038A
S1130DB00E94640361E08CE00E94D802F4E66F9E16
S1130DC0C0011124BE010E94AD08CB014AE060E0DD
S1130DD071E00E94380980933A01E0E0F1E001906B
S1130DE00020E9F73197E050F1401E2F80E0C82E33
S1130DF081E0D82EF12CF11638F4F60181916F01BF
S1130E000E94E502F394F7CF85E20E94E5020E9476
S1130E106403E0912201F0E0E151FF4F849161E02D
S1130E200E94D80287EA91E60197F1F700C000001A
S1130E3042CF1F920F920FB60F9211242F933F931C
S1130E404F935F936F937F938F939F93AF93BF93CE
S1130E50EF93FF9389B18095881F8827881F80FBB3
S1130E6091F80E944003892D8C60982EFF91EF9198
S1130E70BF91AF919F918F917F916F915F914F91AE
S1130E803F912F910F900FBE0F901F9018951895BA
S1130E9018951F920F920FB60F921124CF92DF92E2
S1130EA0EF92FF921F932F933F934F935F936F9310
S1130EB07F938F939F93AF93BF93EF93FF93CF93BE
S1130EC0DF9300D0CDB7DEB7892D869586958370E4
S1130ED0813011F10E94400381EB84BD92EB909329
S1130EE080008093B0001092B3001092880017BC69
S1130EF08FEF8093B40080938A0088BD80E286BB24
S1130F00B59BFECF892D837F8460982E84B18E603B
S1130F1084B98AB188668AB9882D90E01C01209131
S1130F20370130913801820F931F909338018093D9
S1130F30370180913701909138018115904C48F028
S1130F408091370190913801905C9093380180939F
S1130F5037018091370190913801892F99279C019D
S1130F60220F331F820F931FFC01EB50FF4F8A5057
S1130F709F4F3491AF014E5F5F4FFC0191FC04C061
S1130F808491FA01249103C02491FA018491639E0F
S1130F90A0011124E52FE695629E90011124E32E11
S1130FA0E694689EC0011124F92EF69410E8AE016F
S1130FB04F5F5F4FBE016E5F7F4F812F8E1B0E947C
S1130FC09E038A8187BD898188BDAE014F5F5F4FD3
S1130FD0BE016E5F7F4F812F8E190E949E038A810E
S1130FE080938800898180938A00AE014F5F5F4FB0
S1130FF0BE016E5F7F4F812F8F190E949E038A81ED
S11310008093B30089818093B400809120018F5F25
S113101080932001883C08F451C090FE16C02091B2
S11310203901C0903901E82DF0E030E0AFEFB0E0D5
S11310300E941609BB27A92F982F872F45E251E05C
S1131040BF010E94E3018C0D882E682D70E080E0C2
S11310509BE40E94AD089B0140E050E066ED7CED0E
S113106081E090E00E94D50830932401209323016D
S1131070C9016AE070E00E94AD08769E9001779EF7
S1131080300D1124B90180E090E0232B59F0663F24
S1131090F9E07F078105910544F066EF79E080E08F
S11310A090E003C060E070E0CB012AE030E040E073
S11310B050E00E94F708622E109220010F900F90CA
S11310C0DF91CF91FF91EF91BF91AF919F918F915C
S11310D07F916F915F914F913F912F911F91FF905D
S11310E0EF90DF90CF900F900FBE0F901F90189548
S11310F078941F920F920FB60F9211242F938F930F
S11311009F9390FE22C080917C00843659F08536EE
S1131110B1F48091790090E0870D911D95958795A4
S1131120782E0DC0209139018091790090E0820FD2
S1131130911D959587958093390185E601C084E6D4
S113114080937C008EED80937A009F918F912F91F4
S11311500F900FBE0F901F901895AA1BBB1B51E157
S113116007C0AA1FBB1FA617B70710F0A61BB70B13
S1131170881F991F5A95A9F780959095BC01CD01B8
S1131180089597FB072E16F4009407D077FD09D035
S11311900E94AD0807FC05D03EF4909581959F4FC1
S11311A00895709561957F4F0895A1E21A2EAA1BA8
S11311B0BB1BFD010DC0AA1FBB1FEE1FFF1FA21703
S11311C0B307E407F50720F0A21BB30BE40BF50B00
S11311D0661F771F881F991F1A9469F76095709589
S11311E0809590959B01AC01BD01CF010895052E1A
S11311F097FB1EF400940E940E0957FD07D00E942D
S1131200D50807FC03D04EF40C940E095095409574
S1131210309521953F4F4F4F5F4F0895909580959E
S1131220709561957F4F8F4F9F4F0895A29FB00196
S1131230B39FC001A39F700D811D1124911DB29F06
S1131240700D811D1124911D0895B7FF0C942D0973
S11312500E942D09821B930B08950E941609A59FD5
S1131260900DB49F900DA49F800D911D112408959D
S1131270BB274A3031F4992322F4BDE2909581953D
S11312809F4F0C944409BB27FB015527AA27880FBD
S1131290991FAA1FA41710F0A41B83955051B9F7E6
S11312A0A05DAA3308F0A95DA193009779F7B11165
S11312B0B1931192CB010C945D09DC01FC01672F01
S11312C071917723E1F7329704C07C916D93708319
S11312D06291AE17BF07C8F30895F999FECF92BD86
S11312E081BDF89A992780B50895A8E1B0E042E05D
S11312F050E00C949009262FF999FECF1FBA92BDA5
S113130081BD20BD0FB6F894FA9AF99A0FBE0196E2
S113131008950E947B09272F0C947C09DC01CB01E2
S1131320FC01F999FECF06C0F2BDE1BDF89A3196F1
S113133000B40D9241505040B8F70895F894FFCF8F
S11313403030303030303030303030303031323393
S11313503435363738394142434445460000140099
S9030000FC
