:1000000033C0000041C000003FC000003DC0000000
:100010003BC0000039C0000037C0000035C0000000
:1000200033C0000031C000002FC000002DC0000010
:100030002BC0000029C00000B5C0000025C0000092
:1000400023C0000021C000001FC000001DC0000030
:100050001BC0000019C0000017C0000015C0000040
:1000600013C0000011C0000011241FBECFEFD8E064
:10007000DEBFCDBF21E0A0E0B1E001C01D92AE30F7
:10008000B207E1F783D0C4C0BBCF80910D018A30A5
:1000900011F118F4882331F03FC08431B9F18E3169
:1000A000C9F13AC01BB88091010190910201A09161
:1000B0000301B09104018C599F4FAF4FBF4F809304
:1000C000090190930A01A0930B01B0930C018AE0FF
:1000D00080930D0121C04091010150910201609176
:1000E0000301709104018091090190910A01A0918E
:1000F0000B01B0910C0184179507A607B70760F4B0
:1001000080E48BB984E180930D0106C08EE1809379
:100110000D0102C010920D0180910001882319F099
:100120008A30C1F008958091010190910201A0915F
:100130000301B0910401C296A11DB11D8093050178
:1001400090930601A0930701B09308018AE0809381
:100150000001089540910101509102016091030155
:10016000709104018091050190910601A091070111
:10017000B091080184179507A607B70730F495B129
:1001800080E2892785B9109200010895259A569A30
:1001900082E084BD95E095BD80936E0088EC87BDBC
:1001A0007894FFCF1F920F920FB60F9211242F93C6
:1001B0003F934F935F936F937F938F939F93AF93EF
:1001C000BF93EF93FF938091010190910201A09161
:1001D0000301B09104010196A11DB11D809301019D
:1001E00090930201A0930301B09304014EDFFF91AD
:1001F000EF91BF91AF919F918F917F916F915F919F
:100200004F913F912F910F900FBE0F901F90189517
:04021000F894FFCF90
:00000001FF
