S01000005350532D4B65726E2E7372656361
S11300003BC0000049C0000047C0000045C00000DC
S113001043C0000041C000003FC000003DC00000DC
S11300203BC0000039C0000037C00000D6C2000049
S113003033C0000031C000002FC000002DC00000FC
S11300402BC0000029C0000027C0000025C000000C
S113005023C0000021C000001FC000001DC000001C
S11300601BC0000019C000000D01230160017301D1
S1130070B001C3013B02000211241FBECFEFD8E040
S1130080DEBFCDBF21E0A0E0B1E001C01D92AB32E4
S1130090B207E1F798D25DC4B3CF8F929F92AF922B
S11300A0BF92CF92DF92EF92FF9280910101882359
S11300B019F08A3069F032C01092150110921601BD
S11300C010921701109218018AE08093010126C052
S11300D08091150190911601A0911701B09118011A
S11300E00196A11DB11D8093150190931601A09353
S11300F01701B09318018091150190911601A091F8
S11301001701B0911801883C9105A105B10530F0A3
S113011095B180E2892785B91092010180910E0181
S1130120882319F08A3069F03CC010920A011092B9
S11301300B0110920C0110920D018AE080930E01C4
S113014030C080910A0190910B01A0910C01B091F3
S11301500D010196A11DB11D80930A0190930B011D
S1130160A0930C01B0930D0180910001882329F024
S11301701092000110920E0114C080910A01909116
S11301800B01A0910C01B0910D01843F9140A10598
S1130190B10538F080E18093190180932401109215
S11301A00E01609124018090100190901101A090A3
S11301B01201B0901301C0900201D0900301E090AD
S11301C00401F090050170E080E090E0CDD2A5013B
S11301D0940156D3A701960135D220E030E040E0E7
S11301E05FE330D293D280910F01262F30E090E06C
S11301F001972817390719F460910F0102C0609321
S11302000F01E09123018E2F90E08830910508F0D2
S113021032C1FC01EC5CFF4F96C380E18093220164
S11302208093140110921A0110921B0110921C0168
S113023010921D0180911901813408F41EC181E0DE
S1130240809323011AC180911A0190911B01A091FE
S11302501C01B0911D010196A11DB11D80931A01CD
S113026090931B01A0931C01B0931D0180911A016E
S113027090911B01A0911C01B0911D01883C910536
S1130280A105B105A0F010921A0110921B01109261
S11302901C0110921D01809122018F5F8093220125
S11302A0809122018C3118F082E0809323018091A7
S11302B01901813408F0E1C087E080932301DDC097
S11302C08CE18093220180911901813418F487E034
S11302D08093230180911901803608F4CEC083E015
S11302E080932301CAC080911A0190911B01A091AF
S11302F01C01B0911D010196A11DB11D80931A012D
S113030090931B01A0931C01B0931D0180911A01CD
S113031090911B01A0911C01B0911D01883C910595
S1130320A105B105A0F010921A0110921B011092C0
S11303301C0110921D01809114018F5F80931401A0
S113034080911401861718F084E080932301809132
S113035019018F3508F091C082E0809323018DC08C
S11303606093140110921A0110921B0110921C0147
S113037010921D01809119018F3508F07EC085E02F
S1130380809323017AC080911A0190911B01A0915E
S11303901C01B0911D010196A11DB11D80931A018C
S11303A090931B01A0931C01B0931D0180911A012D
S11303B090911B01A0911C01B0911D01883C9105F5
S11303C0A105B105A0F010921A0110921B01109220
S11303D01C0110921D01809114018150809314011D
S11303E080911401813118F487E080932301809176
S11303F01901803608F441C083E0809323013DC095
S113040080911A0190911B01A0911C01B0911D01D2
S11304100196A11DB11D80931A0190931B01A09315
S11304201C01B0931D0180911A0190911B01A091B0
S11304301C01B0911D01883C9105A105B10598F0FE
S113044010921A0110921B0110921C0110921D01AE
S11304508091220181508093220180912201813177
S113046010F41092230180911901823430F081E05C
S11304708093230102C01092230180912201809372
S1130480B3008091140187BDFF90EF90DF90CF906F
S1130490BF90AF909F908F900895259A8AB1806AFB
S11304A08AB9E0EBF0E0808183688083E1EBF0E0DF
S11304B0808187608083239A84B5836884BD85B5F1
S11304C0856085BD569A8DEC9CECACE4BEE38093CC
S11304D0100190931101A0931201B0931301609144
S11304E0100170911101809112019091130120E08B
S11304F030E04CED52E4C4D19B01AC0160E070E00B
S113050080EE91E49ED06093020170930301809386
S1130510040190930501089580912801882319F01E
S11305208A3049F019C0189B17C0109225018AE03F
S11305308093280111C018990AC0809125018093E5
S1130540190181E0809300011092280105C0809177
S113055025018F5F8093250180912701882319F05D
S11305608A3051F008955D981C9B18C010922601A2
S11305708AE08093270108955D9A1C990AC08091AE
S113058026018093240181E08093000110922701C9
S11305900895809126018F5F80932601089510921B
S11305A08000E1E8F0E080818A608083EFE6F0E09B
S11305B080818260808387E290E0909389008093B9
S11305C088007894089569DFEADF809129018130F9
S11305D0E1F71092290161DDF8CF1F920F920FB657
S11305E00F9211242F933F934F935F936F937F93B5
S11305F08F939F93AF93BF93EF93FF935F9A8091F1
S11306002A01823330F081E08093290110922A017B
S113061005C080912A018F5F80932A017DDF5F9856
S1130620FF91EF91BF91AF919F918F917F916F91C6
S11306305F914F913F912F910F900FBE0F901F909C
S113064018955058BB27AA270ED0E0C0D1D030F05F
S1130650D6D020F031F49F3F11F41EF4C6C00EF43E
S1130660E095E7FBBCC0E92FE2D080F3BA1762073C
S113067073078407950718F071F49EF5FAC00EF419
S1130680E0950B2EBA2FA02D0B01B90190010C019E
S1130690CA01A0011124FF27591B99F0593F50F4B6
S11306A0503E68F11A16F040A22F232F342F44270E
S11306B0585FF3CF469537952795A795F040539506
S11306C0C9F77EF41F16BA0B620B730B840BBAF0D6
S11306D09150A1F0FF0FBB1F661F771F881FC2F741
S11306E00EC0BA0F621F731F841F48F48795779555
S11306F06795B795F7959E3F08F0B3CF9395880F0C
S113070008F09927EE0F97958795089598D088F06B
S11307109F5790F0B92F9927B751A0F0D1F0660FE9
S1130720771F881F991F1AF0BA95C9F712C0B13004
S113073081F09FD0B1E008959CC0672F782F88275F
S1130740B85F39F0B93FCCF3869577956795B39543
S1130750D9F73EF490958095709561957F4F8F4FB2
S11307609F4F0895E89409C097FB3EF490958095B7
S1130770709561957F4F8F4F9F4F9923A9F0F92F63
S113078096E9BB279395F695879577956795B795E1
S1130790F111F8CFFAF4BB0F11F460FF1BC06F5FC7
S11307A07F4F8F4F9F4F16C0882311F096E911C0D9
S11307B0772321F09EE8872F762F05C0662371F0FA
S11307C096E8862F70E060E02AF09A95660F771F0E
S11307D0881FDAF7880F9695879597F9089597F902
S11307E09F6780E870E060E008959FEF80EC0895D3
S11307F000240A94161617061806090608950024FC
S11308000A9412161306140605060895092E039475
S1130810000C11F4882352F0BB0F40F4BF2B11F4E9
S113082060FF04C06F5F7F4F8F4F9F4F089557FD48
S11308309058440F551F59F05F3F71F04795880F4A
S113084097FB991F61F09F3F79F0879508951216E1
S113085013061406551FF2CF4695F1DF08C016168D
S113086017061806991FF1CF86957105610508943E
S11308700895E894BB2766277727CB0197F9089555
S11308800BD0C4CFB5DF28F0BADF18F0952309F0F8
S1130890A6CFABCF1124EECFCADFA0F3959FD1F33F
S11308A0950F50E0551F629FF001729FBB27F00D1A
S11308B0B11D639FAA27F00DB11DAA1F649F66276F
S11308C0B00DA11D661F829F2227B00DA11D621FBE
S11308D0739FB00DA11D621F839FA00D611D221F78
S11308E0749F3327A00D611D231F849F600D211D5C
S11308F0822F762F6A2F11249F5750408AF0E1F0FF
S113090088234AF0EE0FFF1FBB1F661F771F881F47
S113091091505040A9F79E3F510570F060CFAACF87
S11309205F3FECF3983EDCF3869577956795B79532
S1130930F795E7959F5FC1F7FE2B880F911D96955C
S1130940879597F90895EE0FFF1F0590F491E02D18
S10909500994F894FFCFA6
S9030000FC
