S0100000536572766F5F30312E7372656345
S11300000C9434000C9446000C9446000C94460066
S11300100C9446000C9446000C9446000C94460044
S11300200C9446000C9446000C9446000C94460034
S11300300C9446000C9446000C9446000C94460024
S11300400C9446000C9446000C9446000C94460014
S11300500C9446000C9446000C9446000C94460004
S11300600C9446000C94460011241FBECFEFD8E038
S1130070DEBFCDBF21E0A0E0B1E001C01D92A13000
S1130080B207E1F70E9448000C9469000C94000048
S11300908FEF84B92AEA95E520930001809100014D
S11300A085B93FEF43EC89E0315040408040E1F7AF
S11300B000C00000909300018091000185B93FEFDA
S11300C043EC89E0315040408040E1F700C000003B
S10900D0E3CFF894FFCF1A
S9030000FC
